:100000000C9424010C944C010C944C010C944C0164
:100010000C944C010C944C010C944C010C944C012C
:100020000C944C010C944C010C94900D0C94020E09
:100030000C944C010C944C010C944C010C944C010C
:100040000C944C010C941A110C944C010C944C011E
:100050000C944C010C944C010C944C010C94D42342
:100060000C944C010C944C010C944C010C944C01DC
:100070000C944C010C944C010C944C010C944C01CC
:100080000C944C010C944C010C944C010C944C01BC
:100090000C9497160C944C010C944C010C944C014C
:1000A0000C944C010C944C010C944C01F311F9117B
:1000B000FF1105120B12111217125213591360136C
:1000C00067136E138513751385137C13A61A821C90
:1000D000ED1A231B9B1B2D1CD51CA31CE01B70229F
:1000E0007322622266226C22942294229422772226
:1000F0007B227F228522892294228F22F822FD22D0
:1001000002230C23162360236023602320232A2349
:1001100034233E234B2360235323070605040100A9
:10012000080A0B0C0D094F4B004F4B004F4B006E54
:100130002F6100080B000202020100090400000107
:10014000020200000524001001052401010104241D
:10015000020605240600010705810310004009047A
:100160000100020A00000007050202400000070526
:1001700083024000000403090412010002EF02019F
:10018000404F1B0692000101020301537061726B24
:1001900046756E00537061726B46756E2050726FBB
:1001A000204D6963726F0000000000250028002BBD
:1001B000002E003100000000002300260029002C42
:1001C000002F0004040404040304050202020204D4
:1001D00003020202020606060606060404020202E2
:1001E0000404040802011040804010204080408038
:1001F00008020401804020100201108010204040BD
:10020000200000000200090F0000030401000C00A0
:1002100000000000000000000000000000000020BE
:1002200000526F636B732100200020004D6F6269E4
:10023000666C696768740000000000240027002ACB
:10024000002D00300000FD2811241FBECFEFDAE0A2
:10025000DEBFCDBF12E0A0E0B1E0E2EEF5E602C005
:1002600005900D92AC39B107D9F728E0ACE9B2E0BE
:1002700001C01D92A338B207E1F711E0C4E2D1E05A
:1002800004C02197FE010E942B2EC332D107C9F76B
:100290000E941E240C94EF320C940000E8E6F4E077
:1002A0009081981301C01082319694E0EE37F907DF
:1002B000B9F708950F931F93CF93DF93CEE7D6E05E
:1002C00000E010E080917E0490E00817190739F0F3
:1002D000CE010E9426160F5F1F4F2C96F3CFDF91A1
:1002E000CF911F910F910895FF920F931F93CF937A
:1002F000DF9381E00E944E0110927E0488E00E940C
:100300004E011092960483E00E944E011092670401
:1003100084E00E944E0100E010E0C0916604D0E04D
:10032000C017D10789F0CC0FDD1FCC0FDD1FC658D9
:10033000D94F8A81882329F0888199810E94C92E0A
:100340001A820F5F1F4FE9CF1092660480916504F7
:1003500020E030E0482F50E06BE1869FC00111247F
:1003600088529B4FDC011996EC012A9642175307DD
:1003700099F06C91662369F0E881F0E0BF01660FA7
:10038000771FE60FF71FE955FB4F60816F7B608396
:100390001C922F5F3F4FEACF86E00E944E011092E1
:1003A0006504C0E0D0E08091950490E08C179D0733
:1003B00059F0880F991FFC01EF56FB4F8081918106
:1003C0000E94C92E2196EFCF89E00E944E01109223
:1003D000950400E010E086E0F82E8091640490E03F
:1003E0008017910791F0F89EE001F99ED00D11243D
:1003F000C453DB4F8A81882329F0888199810E9428
:10040000C92E1A820F5F1F4FE8CF1092640410921A
:10041000A1021092A00210929704DF91CF911F9138
:100420000F91FF9008950E94C82360938D047093EC
:100430008E0480938F04909390048AE090E00E9451
:100440004D2182EA92E00E94A4210C9462210E9434
:10045000C82360938D0470938E0480938F049093CF
:1004600090048AE090E00E944D2180E091E00E949B
:10047000A4218FE191E00E94A42184E191E00E94F7
:10048000A42188E991E00E94A4210C9462210E9499
:10049000AB202091950430E08217930734F5880F44
:1004A000991FFC01EF56FB4F0190F081E02D15865E
:1004B00016861786108A118A128A138A148A15AA38
:1004C00016AA17AA10AE15A216A217A210A6158A70
:1004D000168A178A108E0E94C82360938D04709329
:1004E0008E0480938F049093900408958F929F922E
:1004F000AF92BF92CF92DF92FF920F931F93CF9351
:10050000DF93CDB7DEB765970FB6F894DEBF0FBEA9
:10051000CDBF0E94AB205C010E94BF206C0186E031
:100520008A9D80018B9D100D1124D801A453BB4FCF
:1005300012968C9112978823A9F11A8219829E0132
:100540002D5F3F4F83E1F90111928A95E9F7F12C74
:100550008D014D01F5E08F0E911C5D0184E0A80E28
:10056000B11CF40180818F15E9F06F2DF8018081B5
:1005700091810E940722F5018081482F50E0B60149
:100580008F9D600D711D1124CE0101960E941D30BA
:10059000BE016F5F7F4FF801808191810E946B10D7
:1005A000F394DFCF8091A207811109C085E090E02C
:1005B0000E944D21C6010E94A4210E9462210E9436
:1005C000C82360938D0470938E0480938F0490935E
:1005D000900465960FB6F894DEBF0FBECDBFDF91D5
:1005E000CF911F910F91FF90DF90CF90BF90AF9070
:1005F0009F908F9008954F925F926F927F928F920B
:100600009F92AF92BF92CF92DF92EF92FF920F93A1
:100610001F93CF93DF930E94AB208C010E94AB20ED
:10062000BC018091650490E0081719070CF0C4C064
:100630008BE1809FE001819FD00D1124C852DB4FD8
:10064000CD80DE800D2C000CEE08FF0889809A809A
:10065000092C000CAA08BB082F813885C901330F6B
:10066000AA0BBB0B9C01AD012C193D094E095F097A
:10067000CB01770FAA0BBB0BBC01CD01681979091F
:100680008A099B090E940F2E2B813C812901330F7F
:1006900066087708A3019201281939094A095B09FC
:1006A0000E945B2CC20ED31EE41EF51E0D2C000C06
:1006B000EE08FF088D859E85AF85B8898C159D0550
:1006C000AE05BF0509F46EC0CD86DE86EF86F88ADA
:1006D0008985811167C08A858C3008F059C0F880FF
:1006E00061E08F2D0E9495228A85E82FF0E09F011E
:1006F000220F331FE20FF31FE955FB4F9F2D9F730E
:100700002081207CF22EF92AF0821B861C866CE068
:100710000E941F2E9CE0899FB001112440E050E010
:100720009B01240F351FF901EE0FFF1F2E0F3F1FF6
:10073000F901E955FB4F908196FD16C04F5F5F4F61
:100740004C30510569F781110FC01092800082E092
:10075000809381001092850010928400B19A80915C
:100760006F00826080936F008BE1809FF001819F1A
:10077000F00D1124E852FB4FE285F0E0CF01880F25
:10078000991FE80FF91FE955FB4F80818064808332
:100790008BE1809FF001819FF00D1124E852FB4F07
:1007A00081E081870E94C82360938D0470938E043A
:1007B00080938F0490939004DF91CF911F910F91BC
:1007C000FF90EF90DF90CF90BF90AF909F908F9071
:1007D0007F906F905F904F9008950E94AB20209182
:1007E000950430E0821793079CF4880F991FFC0151
:1007F000EF56FB4F808191810E9434200E94C823D4
:1008000060938D0470938E0480938F049093900472
:1008100008950F931F93CF93DF930E94AB20EC01B9
:100820000E945620882361F081E080932C088093F9
:100830002D0880912E0890912F080E94A42A05C0AF
:1008400010922D0860E070E0CB012091950430E01B
:10085000C217D307A4F5CC0FDD1FCF56DB4FE881BD
:10086000F9811182DF01AE5ABF4F0D911D912D917B
:100870003C9113976017710782079307B1F06D934E
:100880007D938D939C9313970189128923893489D1
:10089000601771078207930741F0618B728B838B1E
:1008A000948BCF0102960E94D2140E94C8236093B9
:1008B0008D0470938E0480938F0490939004DF9145
:1008C000CF911F910F9108950F931F93CF93DF93B3
:1008D0000E94AB20EC010E94AB208C010E94AB2057
:1008E000282FFE01EE0FFF1FEE0FFF1FE658F94FF6
:1008F0008281882391F08381081778F4B8017727E3
:1009000080819181FC01EA5AFF4F40815181641737
:1009100075071CF44AE00E94C2180E94C823609325
:100920008D0470938E0480938F0490939004DF91D4
:10093000CF911F910F9108950C946404CF930E945E
:10094000AB20C82F0E94AB20BC018C2F0E94D1226B
:100950000E94C82360938D0470938E0480938F044B
:1009600090939004CF9108950E94C82360938D04C2
:1009700070938E0480938F04909390046FE271E0E3
:1009800085E090E00C94802181E0809397046CE2F4
:1009900071E081E190E00C94802140E051E062EA56
:1009A00072E08BE390E00E94E12169E271E08FE068
:1009B00090E00C9480210E94740166E271E085E071
:1009C00090E00C9480210F931F93CF93C82F8A013E
:1009D00086E090E00E944D21C8010E94A4218091F0
:1009E000A207882399F0609136088091330890918E
:1009F00034080E9440104C2F50E060E070E02AE084
:100A000080913308909134080E94D220CF911F9199
:100A10000F910C9462210F931F93CF93C82F8A01DB
:100A200087E090E00E944D21C8010E94A42180919E
:100A3000A207882399F0609136088091330890913D
:100A400034080E9440104C2F50E060E070E02AE033
:100A500080913308909134080E94D220CF911F9149
:100A60000F910C946221CF92DF92EF92FF92CF937D
:100A7000DF93F82E4BE050E064E171E080E390E01A
:100A80000E947F19F11009C080911401833529F467
:100A9000809115018E3409F472C0EAE1F1E0E4912D
:100AA00080917B00E3FB992790F9C92F90E0D92F23
:100AB00035E0CC0FDD1F3A95E1F78F7DC82BC09351
:100AC0007B00E770E064E0937C0080917A008064B2
:100AD00080937A0080917A0086FDFCCF6091780047
:100AE0008091790070E0782B072E000C880B990B11
:100AF000611571058105910511F00E947D2A0E9402
:100B00002F2ACC24CA942FE0D22EE12CF12CA7015D
:100B100096010E945B2C7F936F938BE792E09F93EB
:100B20008F9384E191E09F938F930E943C300E94C9
:100B30002F2AA70196010E945B2C7F936F9384E874
:100B400092E09F938F938BE191E09F938F930E940C
:100B50003C308DB79EB70C960FB6F8949EBF0FBE73
:100B60008DBF4BE050E064E171E080E390E0DF9105
:100B7000CF91FF90EF90DF90CF900C94E121DF9127
:100B8000CF91FF90EF90DF90CF90089581E00E9489
:100B900033058AE090E00E944D2184E191E00E94BB
:100BA000A4210C946221CF93DF93CDB7DEB72897B1
:100BB0000FB6F894DEBF0FBECDBF0E94BF20BC01B0
:100BC000CE0101960E94C51F40E350E06FE171E045
:100BD000CE0101960E94BF2183E290E098878F8327
:100BE00041E050E0BE01695F7F4F80E090E00E94ED
:100BF000E1214FE250E06FE171E081E090E00E947E
:100C0000E12185E090E00E944D218FE191E00E947A
:100C1000A4210E94622189819A810E94C92E28966E
:100C20000FB6F894DEBF0FBECDBFDF91CF91089510
:100C30006F927F928F929F92AF92BF92CF92DF92EC
:100C4000EF92FF920F931F93CF93DF9300D000D0CA
:100C500000D0CDB7DEB70E94AB208C010E94AB2044
:100C60007C010E94BF206C010E94AB204C010E94BD
:100C7000AB205C01000F111F000F111F0658194F08
:100C8000D80112968C91882309F459C0B601CE017F
:100C900001960E94C51FFF24370183E0660C771C74
:100CA0008A95E1F7D12C48E0BB249924CC24CA943E
:100CB000C40E6C2D70E0C5010C2C02C09595879573
:100CC0000A94E2F780FF34C08D2D90E02D813E81A3
:100CD0008217930750F429813A812115310529F0B3
:100CE000F901E80FF91FE08101C0E0E0D8018D9122
:100CF0009C91DC01AA5ABF4F2D913C91E216F3065C
:100D0000B4F4F0E0E056FE4F2081F4010C2C02C058
:100D1000F595E7950A94E2F7E0FD2068680F791FE2
:100D2000FB01E60DF71D208BB7010E94C218D3947A
:100D30004C2DC110BBCF89819A810E94C92E0E947F
:100D4000C82360938D0470938E0480938F049093D6
:100D5000900426960FB6F894DEBF0FBECDBFDF918C
:100D6000CF911F910F91FF90EF90DF90CF90BF90A8
:100D7000AF909F908F907F906F900895CF93DF9367
:100D800000D000D000D0CDB7DEB762EA72E0CE016D
:100D900001960E94C51FCE0101960E94501A8981BA
:100DA0009A810E94C92E0E94C40426960FB6F89418
:100DB000DEBF0FBECDBFDF91CF9108950F931F937C
:100DC000CF93DF9300D000D000D0CDB7DEB70E9424
:100DD000C82360938D0470938E0480938F04909346
:100DE00090040E94BF20BC01CE0101960E94C51F45
:100DF0006091A0027091A1024D815E818B01040F70
:100E0000151F40E051E0401B510B423051055CF191
:100E10006E557D4FCE0101960E94BF211093A10215
:100E20000093A0028091A207811135C085E090E077
:100E30000E944D218091A207882391F0609136088D
:100E400080913308909134080E944010A801110F3E
:100E5000660B770B80913308909134080E941B2118
:100E60000E94622118C08091A207811114C085E000
:100E700090E00E944D218091A207882389F3609120
:100E8000360880913308909134080E9440104FEF4B
:100E90005FEFBA01DFCF89819A810E94C92E269621
:100EA0000FB6F894DEBF0FBECDBFDF91CF911F917B
:100EB0000F910895CF93DF9300D000D000D0CDB72D
:100EC000DEB720919E0230919F0280919C0290910A
:100ED0009D022817390721F410929D0210929C025E
:100EE00080919C0290919D0290939F0280939E021C
:100EF0001092A20280E00E943305E8E6F4E011922D
:100F000044E0EE37F407D9F70E94C82360938D04BC
:100F100070938E0480938F04909390040E947401C8
:100F200040E051E062EA72E08BE390E00E947F19BA
:100F3000E2EAF2E080E090E0382F292F811541E0CD
:100F4000940749F0419101964111F6CF3093A002E8
:100F50002093A10204C09093A1028093A00262EAB0
:100F600072E0CE0101960E94C51FCE0101960E943B
:100F7000501A89819A810E94C92E0E94C404198244
:100F800041E050E0BE016F5F7F4F80E090E00E9443
:100F90007F198981833241F44FE250E06FE171E0C3
:100FA00081E090E00E947F1926960FB6F894DEBF8C
:100FB0000FBECDBFDF91CF910895DF92EF92FF92E8
:100FC0000F931F93CF93DF93D82ECAE7D6E0E12C7F
:100FD000F12C8091660490E0E816F90691F010E09B
:100FE0008B81811749F0612F70E04D2D88819981A7
:100FF0000E946C191F5FF4CF8FEFE81AF80A24964D
:10100000E8CFCEE3D7E000E010E08091670490E005
:101010000817190779F0DD2021F0198260E070E0EF
:1010200002C0698170E088810E94D1220F5F1F4F4A
:101030002296EBCFDF91CF911F910F91FF90EF9010
:10104000DF9008955F926F927F928F929F92AF92FE
:10105000BF92CF92DF92EF92FF920F931F93CF93A5
:10106000DF93CDB7DEB7CB55D1090FB6F894DEBF0D
:101070000FBECDBF7090960494E0791609F4E6C0D7
:10108000E82FF0E0DF01A859BB4F7D019C91911141
:10109000DDC0E62FF0E0DF01A859BB4F6D019C9148
:1010A0009111D4C0642E562E682FA72CB12CFE01AE
:1010B000349687E4DF011D928A95E9F782E390E098
:1010C0006C969FAF8EAF6C971B828BE58A9D40011B
:1010D0008B9D900C11248401025F1A4F3397D80125
:1010E00001900D928A95E1F7F801E45BFF4F1082C1
:1010F000118212821382329731832083F801608338
:101100005182E85AFF4F4083C4018F5E9A4F0E947C
:101110003322652DC401865E9A4F0E943322D80186
:1011200055961C92559757961C921E925697599613
:101130001C921E925897F801128E138E148E158EE3
:1011400088EE93E0A0E0B0E0868F978FA0A3B1A3D4
:10115000D401A05DBA4F85E0869DF0011124EB59C2
:10116000FE4F01900D928A95E1F70E94C823F80185
:10117000E05CFF4F60837183828393832BE5729ED3
:10118000F0011124EB5CFA4F20E0119211921192C0
:10119000119260877187828793872F5F2330A9F729
:1011A0008BE58A9DF0018B9DF00D1124E25FFA4FD3
:1011B00017AEDF01AC5BBF4F26EA30E011963C93DF
:1011C0002E9348E15CEF6FEF7FEF428F538F648F78
:1011D000758F48EE53E060E070E0468F578F60A354
:1011E00071A318964D915C91BA0106A002C0759545
:1011F00067950A94E2F72689378923703327262BCF
:10120000372B378B268B518F408F91E09283209123
:101210009604829FC0011124825F9A4FFC01E05B1B
:10122000FF4F43EE54E05183408332965183408315
:1012300032965183408332965183408388E0F70190
:101240008083D6018C932F5F20939604C55ADF4F7D
:101250000FB6F894DEBF0FBECDBFDF91CF911F91C7
:101260000F91FF90EF90DF90CF90BF90AF909F9045
:101270008F907F906F905F9008952F923F924F9242
:101280005F926F927F928F929F92AF92BF92CF9216
:10129000DF92EF92FF920F931F93CF93DF93CDB71F
:1012A000DEB72A970FB6F894DEBF0FBECDBFE09130
:1012B0009504E23009F4EDC1FC01FF27DF01A859D4
:1012C000BB4FBA83A983EC91E111E3C1FB01FF2776
:1012D000DF01A859BB4FBC83AB83EC91E111D9C1AD
:1012E000FA01FF27DF01A859BB4FBE83AD83EC9104
:1012F000E111CFC1F901FF27DF01A859BB4FB88722
:10130000AF83EC91E111C5C1101611063CF4F80150
:10131000FF27E859FB4FE081E111BBC149017A0188
:101320005B016C0186E590E00E94312E9A878987E7
:101330003C01F2E06F0E711C82E891E0A985BA854C
:1013400013969C938E93129784E014968C93149723
:10135000FD01158616861786108A51961D921D92DC
:101360001D921C925497158A168A178A108E212C6A
:10137000312C80E8482E8FE3582E59962D923D92BD
:101380004D925C925C97158E168E178E10A29196D8
:101390002D923D924D925C92949715A216A217A29F
:1013A00010A681E090E096A785A78FEF80AB999675
:1013B0001D921D921D921C929C9715968C921597CA
:1013C0001696AC9216971796CC9217971896EC92A1
:1013D000189715AA16AA17AA10AED9961D921D9293
:1013E0001D921C92DC97FD9610821182128213824C
:1013F0005D01B1E4AB0EB11CF50120823182428265
:101400005382E985FA85EB5BFF4F1082A985BA8587
:1014100019961C9219971A961C921A971B961C9251
:101420001B971C961C92C3010E945C0DE985FA85EE
:10143000C58CD68CE78CF0A0A2019101C701B60142
:101440000E940F2B882339F1E985FA8565A976A9D1
:1014500087A990AD0E94162BA70196010E94752BBB
:101460000E94D42DA985BA85D5966D937D938D93D1
:101470009C93D89786E896E6A9E6B9E4E985FA85CB
:1014800081AF92AFA3AFB4AF258E368E478E50A2F8
:10149000C3010E94D21449E852E0602FE984FA8423
:1014A000B6E4EB0EF11CC7010E947F16E985FA85B0
:1014B00011828091F303E82FF0E0EE0FFF1FE1515E
:1014C000FC4F29853A85318320838F5F8093F30316
:1014D00088E893E1D70119969C938E9318971B96F1
:1014E0009C938E931A97E0919504F0E0EE0FFF1F06
:1014F000EF56FB4F3183208320E030E048EC53E48B
:10150000E985FA85618D728D838D948D0E940F2BF4
:10151000882309F445C080E090E0A8ECB3E4E985B5
:10152000FA85818F928FA38FB48F80E090E4ACE135
:10153000B5E4F50180839183A283B383E985FA85BD
:1015400085A996A9A7A9B0AD181619061A061B06F3
:101550003CF5658976898789908D9B01AC010E9455
:10156000752B6B017C01A985BA855D966D917D9186
:101570008D919C9190979B01AC010E94F62C9B0150
:10158000AC01C701B6010E94622D0E94D42DE985ED
:10159000FA8565AB76AB87AB90AFC3010E94D214DE
:1015A000E0919504F0E0EE0FFF1FEF56FB4F208116
:1015B00031813A872987D9015D96CD90DD90ED90F4
:1015C000FC90909720E030E048E454E4C701B60175
:1015D0000E940F2B8823C1F1E985FA8565A976A9B8
:1015E00087A990AD0E94162B4B015C0120E030E0F2
:1015F00048E454E4C701B6010E94622D9B01AC018E
:10160000C501B4010E94752B0E94D42DA985BA850D
:10161000D5966D937D938D939C93D89781E098E0B8
:10162000A4E0B7E4E985FA8581AF92AFA3AFB4AF88
:1016300080E090E0A8E4B4E4858F968FA78FB0A3F4
:10164000CF0102960E94D21489E0A981BA818C93BD
:10165000EB81FC818083AD81BE818C93EF81F88525
:1016600080831016110684F41127F801E859FB4F06
:101670008083E0919504F0E0EE0FFF1FEF56FB4FE3
:10168000808191810E943420809195048F5F8093A6
:1016900095042A960FB6F894DEBF0FBECDBFDF913A
:1016A000CF911F910F91FF90EF90DF90CF90BF905F
:1016B000AF909F908F907F906F905F904F903F90F2
:1016C0002F9008954091EB035091EC032091E90392
:1016D0003091EA0342175307B4F49091E8009570F3
:1016E000E1F39091E80092FD19C08093F1008091A0
:1016F000EB039091EC0301968F739927892B19F4D2
:101700008EEF8093E8008091EB039091EC030196BB
:101710009093EC038093EB0381E0089580E00895BB
:10172000DF92EF92FF920F931F93CF93DF93D82E08
:10173000F92EE42E062F10E0C8010196880F0E94B2
:10174000620B83E00E94620BCD2DDF2D0C0F1D1F5D
:10175000C017D10789F0E7FE03C0FE01849101C0E4
:1017600088810E94620BF82E80E00E94620B8F211C
:1017700021968111EDCF01C081E0DF91CF911F91C2
:101780000F91FF90EF90DF900895DF92EF92FF921C
:101790000F931F93CF93DF93D82E8A017B01E40E22
:1017A000F51EEB01CE15DF0571F0D7FE03C0FE017B
:1017B000849101C088810E94620B21968111F2CF31
:1017C0008FEF9FEF01C0C801DF91CF911F910F9163
:1017D000FF90EF90DF900895615030F02091F1007C
:1017E000FC0120830196F8CF289884E68093570463
:1017F0000895CF92DF92EF92FF920F931F93CF93B2
:10180000DF936C017A018B01C0E0D0E0CE15DF05DB
:1018100081F0D8016D918D01D601ED91FC9101907F
:10182000F081E02DC6010995892B11F02196EECFAC
:101830007E01C701DF91CF911F910F91FF90EF9033
:10184000DF90CF900895CF93DF931F92CDB7DEB78F
:101850006983DC01ED91FC910280F381E02D41E090
:1018600050E0BE016F5F7F4F09950F90DF91CF91E0
:10187000089583E08093E9008091F200882319F0B5
:101880008AE38093E8000895FC018485958597FD9F
:101890000BC09FB7F89482E08093E9008091F2003A
:1018A0009FBF90E0019608959FB7F89482E08093DF
:1018B000E9008091F2009FBF90E008950F931F937D
:1018C000CF93DF931F92CDB7DEB782E0898342E4E6
:1018D00050E063E371E080E80E94C50B0E94E419C8
:1018E000DC0112960D911C9113970115110589F0D9
:1018F000D801ED91FC910280F381E02DBE016F5F74
:101900007F4FC801099597FD04C0F8010085118536
:10191000ECCF89810F90DF91CF911F910F910895A6
:101920008F929F92AF92BF92CF92DF92EF92FF92EF
:101930000F931F93CF93DF936C017B018A018091FA
:101940005A01882309F45CC080915804882309F463
:1019500057C080918B0480FF05C08091E0008260B9
:101960008093E000E801B12C8AEFA82E93E0892E45
:101970002AE3922E209711F4BB20D9F10E94D319AB
:1019800081110AC0AA94AA20D9F161E070E080E038
:1019900090E00E948E23EECF282F30E0C217D307AD
:1019A0000CF48C2F9FB7F8948092E9002091E80006
:1019B00025FF1DC0282F30E0C21BD30BF70181503B
:1019C00020F041914093F100FACFE20EF31EBB20CC
:1019D00019F09092E8000AC08091E80085FD07C0E8
:1019E0009092E800BB24B394209709F0B12C9FBFDC
:1019F000C1CF5D9884E68093EE031016110644F083
:101A000081E090E0F6019383828380E090E001C062
:101A1000C801DF91CF911F910F91FF90EF90DF9060
:101A2000CF90BF90AF909F908F9008950E94D31950
:101A300090E008950F931F93CF93DF931F92CDB73C
:101A4000DEB78C01FC018485958597FF0EC0CE0121
:101A500001960E94A519019719F4898190E002C0AE
:101A60008FEF9FEFF80195878487F801848595852E
:101A70000F90DF91CF911F910F910895CF93DF9336
:101A80001F92CDB7DEB7FC018485958597FD05C013
:101A90002FEF3FEF358724870BC0CE0101960E94C0
:101AA000A519019719F4898190E002C08FEF9FEF8B
:101AB0000F90DF91CF910895CF93DF93FC012281A6
:101AC000222359F1EC0161E083810E94952261E0BB
:101AD0008C810E9495228A81843011F0883039F4FB
:101AE00061E08D810E94952261E08E8106C0833085
:101AF00011F0863021F461E08D810E9495228EA53F
:101B00008F3F59F061E00E9495226DA581E0682722
:101B10008EA5DF91CF910C94211ADF91CF9108957A
:101B20001F920F920FB60F9211248F939F93809163
:101B3000E1009091E100937F9093E10083FF0FC05B
:101B40001092E90091E09093EB001092EC0092E388
:101B50009093ED001092580498E09093F00082FF6B
:101B600020C093E09093E9009091F200992319F03E
:101B70009AE39093E8009091EE03992339F09091C5
:101B8000EE0391509093EE03992389F190915704BD
:101B9000992339F0909157049150909357049923C9
:101BA00041F184FF10C08091E2008E7E81608093BD
:101BB000E2008091E1008F7E8093E10080918B04B0
:101BC0008E7E806111C080FF16C08091E2008E7E03
:101BD00080618093E2008091E1008E7E8093E1003D
:101BE00080918B048E7E816080938B0404C05D9A0B
:101BF000CDCF289AD6CF9F918F910F900FBE0F9087
:101C00001F9018951F920F920FB60F921124CF922A
:101C1000DF92EF92FF920F931F932F933F934F9377
:101C20005F936F937F938F939F93AF93BF93EF9344
:101C3000FF93CF93DF93CDB7DEB76C97DEBFCDBFF9
:101C40001092E9008091E80083FFFBC168E0CE01BB
:101C500045960E94EC0B82EF8093E8008D8987FF08
:101C600005C09091E80090FFFCCF03C09EEF9093D9
:101C7000E800982F907609F0C6C09E894F89588D4C
:101C80002F89F88C91110CC0803829F480918C0434
:101C90008093F10002C01092F1001092F10045C152
:101CA000913051F4811141C14130510509F03DC1DC
:101CB00080918C048D7F0BC0933061F4811135C10C
:101CC0004130510509F031C180918C0482608093CC
:101CD0008C042BC1953049F48091E80080FFFCCF43
:101CE000822F80688093E30020C1963009F05EC0A7
:101CF0000B8D1C8D22E01092E9001092EC031092E3
:101D0000EB03F21232C01092EA031092E9030E9430
:101D10005E0C99E0BE016F5F7F4FDB01E92F1D92E2
:101D2000EA95E9F79983FA8291E09E8390EA988791
:101D30009AEF99872091EB033091EC03275F3F4F97
:101D40003C832B838D831092E9001092EC03109258
:101D5000EB031093EA030093E90349E050E080E0CD
:101D60000E94C50B0E945E0CE0C01093EA03009332
:101D7000E9030E94E419DC0112960D911C9113975E
:101D80000115110509F4BBC0D801ED91FC91048047
:101D9000F581E02DBE016B5E7F4FC801099500976C
:101DA00009F0C7C0F80100851185EACF973009F422
:101DB00045C1983021F481E08093F100B6C099309C
:101DC00009F0B3C0837009F039C1E1E2F2E081E0CB
:101DD00031E096E32081211109C08EE78093EA006B
:101DE0001092EA008F89809358049FC08093E90085
:101DF0003093EB0021912093EC009093ED008F5FE6
:101E0000873041F7EACF8B8D9C8D1092E9001092BC
:101E1000EC031092EB039093EA038093E903898D1E
:101E2000811153C08E899D89913A49F4813209F01C
:101E300005C147E050E063E571E080E0BBC091324E
:101E400009F0FCC0833269F48F89988DA0E0B0E07E
:101E500080934F0190935001A0935101B093520190
:101E600064C0803269F48091E80082FFFCCF67E0B3
:101E700083E591E00E94EC0B8BEF8093E80055C066
:101E8000823209F052C08F8980935A01EEEFFFE74A
:101E9000859194918B3F9C4D19F0E0E0F8E002C0F1
:101EA000EEEFFAE08091530190915401A091550119
:101EB000B0915601803B9440A105B10509F09EC048
:101EC00080915A0180FF79C099C00E94E419FC01F9
:101ED000028113810115110509F4B0C0D801ED91FB
:101EE000FC910190F081E02DBE016B5E7F4FC80137
:101EF000099581111AC0F80100851185EBCFF1E039
:101F0000FF1609F44EC0F3E0FF1298C08F898823B2
:101F100009F44AC0823089F440E862E184E991E042
:101F20000E94900B882309F489C08EEF8093E8000B
:101F300088C018161906CCF381C0813029F440E816
:101F400068E08BE891E0ECCF833009F077C00E9425
:101F5000E419DC011296ED90FC9013978E010F5F4F
:101F60001F4F6801E114F10479F0D701ED91FC9164
:101F70000680F781E02DB801C7010995080F111DF2
:101F8000F701E084F184EECFD8011C92F6010190B4
:101F90000020E9F73197BF016C197D0940E0C601C7
:101FA000BFCF69E771E002C065E771E0FB014491D2
:101FB00050E080E80E94C50BB8CFEE3F2AE0F20760
:101FC00051F0808191818737A7E79A0721F090939C
:101FD000FF0A8093FE0A87E797E7918380838091C9
:101FE00060008093ED039BE088E10FB6F894A8951C
:101FF000809360000FBE9093600097CF80819181A5
:102000008737974709F091CFA89580916000886144
:10201000809360008091ED0380936000EE3FBAE012
:10202000FB0739F08091FE0A9091FF0A918380832B
:102030007CCF1092FF0A1092FE0A77CF81E2809344
:10204000EB006C960FB6F894DEBF0FBECDBFDF91EC
:10205000CF91FF91EF91BF91AF919F918F917F9120
:102060006F915F914F913F912F911F910F91FF9031
:10207000EF90DF90CF900F900FBE0F901F901895AC
:10208000DC01ED91FC910190F081E02D0994EF923B
:10209000FF920F931F93CF93DF938C017B01C0E0DE
:1020A000D0E0F701EC0FFD1F6491662361F0D801C9
:1020B000ED91FC910190F081E02DC8010995892BEB
:1020C00011F02196EECFCE01DF91CF911F910F91AC
:1020D000FF90EF9008956115710579F0FB01019073
:1020E0000020E9F73197AF01461B570BDC01ED915A
:1020F000FC910280F381E02D099480E090E0089546
:10210000CF93FC01C48121E02093C603C093E80370
:1021100010926104109260048385682B89E994E031
:102120000E94491490916004913208F045C080915A
:102130005F048111FCCF82E080935F0481E0809393
:102140005E048FEF8093C5031092C4039093C30382
:10215000A7ECB3E0E3EAF3E080E0981721F02D91DB
:1021600021938F5FFACF1092A2038091A203CC0F2C
:10217000C82BC093A20380915D04813061F410925A
:102180005D048091A2038093BB008091BC0083FD1D
:10219000F8CF85EC01C085EE8093BC0080915F0490
:1021A0008230E1F38091C5038F3F31F08091C50308
:1021B000803211F08091C503109261041092600486
:1021C0001092C603CF9108950F931F93CF938C0164
:1021D000C62F0E9480106C2F6460C8010E9480107E
:1021E0006C2F6B7FC8010E94801083EC90E00197F8
:1021F000F1F7CF911F910F9108950F931F93CF93F4
:10220000DF938C01C62FD42F607F642B0E94E410D3
:1022100080E1C89FB00111246D2BC801DF91CF91DF
:102220001F910F910C94E41041E00E94FD1081E099
:1022300090E008951F920F920FB60F9211242F93E2
:102240003F934F935F936F937F938F939F93AF933E
:10225000BF93EF93FF938091E70387FF05C0109230
:102260008500109284001BC02091E703022E000C11
:10227000330B8091CB0490E02817390784F48091C8
:10228000E703082E000C990BFC01EE0FFF1F8E0FC9
:102290009F1FFC01E955FB4F808186FD15C0809191
:1022A000E7038F5F8093E7032091E703022E000C82
:1022B000330B8091CB0490E028173907C4F4809148
:1022C000E7038C3064F113C08091E703082E000C03
:1022D000990BFC01EE0FFF1F8E0F9F1FFC01E955AC
:1022E000FB4F808160E08F730E94211AD8CF8091CC
:1022F000840090918500049680349C4918F480E411
:102300009CE905C08091840090918500049690938B
:102310008900809388008FEF8093E7033BC0209172
:102320008400309185008091E703082E000C990B02
:10233000FC01EE0FFF1F8E0F9F1FFC01E955FB4FA5
:1023400081819281820F931F9093890080938800EE
:102350008091E703082E000C990BFC01EE0FFF1F84
:102360008E0F9F1FFC01E955FB4F808186FF12C035
:102370008091E703082E000C990BFC01EE0FFF1F64
:102380008E0F9F1FFC01E955FB4F808161E08F7329
:102390000E94211AFF91EF91BF91AF919F918F9170
:1023A0007F916F915F914F913F912F910F900FBE51
:1023B0000F901F901895CF93DF934770552766278E
:1023C0007727FA013197EC01A881B981E730F1054F
:1023D00020F4EA5AFF4F0C942B2E1496ED91FC91A9
:1023E000159761E029C01496ED91FC91159765E071
:1023F00023C01496ED91FC91159764E01DC01496CE
:10240000ED91FC91159766E017C01496ED91FC9143
:10241000159762E011C01496ED91FC9115976AE052
:102420000BC01496ED91FC91159768E005C01496C9
:10243000ED91FC91159769E0DF91CF910994CF93CD
:10244000DF93EC01CB01BA0126E030E040E050E040
:102450000E945B2C623071058105910559F18CF465
:102460006115710581059105F1F0613071058105F6
:102470009105C1F5E881F9810480F581E02D65E0E1
:102480002DC0643071058105910511F1D4F06530DE
:1024900071058105910531F5E881F9810480F581A7
:1024A000E02D66E01BC0E881F9810480F581E02D14
:1024B00064E014C0E881F9810480F581E02D61E0D9
:1024C0000DC0E881F9810480F581E02D63E006C04C
:1024D000E881F9810480F581E02D62E0CE01DF9191
:1024E000CF910994DF91CF910895437055276627C6
:1024F0007727DC01ED91FC910480F581E02D4230DD
:1025000051056105710571F0433051056105710593
:1025100059F0413051056105710511F065E005C0C4
:1025200066E003C06AE001C069E00994CF93DF93DD
:10253000EC01CB01BA0123E030E040E050E00E9422
:102540005B2C613071058105910581F06230710568
:102550008105910591F0672B682B692BC1F4E88107
:10256000F9810480F581E02D64E00DC0E881F981F6
:102570000480F581E02D61E006C0E881F9810480E6
:10258000F581E02D62E0CE01DF91CF910994DF91DA
:10259000CF9108954370552766277727DC01ED9189
:1025A000FC910480F581E02D4230510561057105F3
:1025B00071F0433051056105710559F04130510505
:1025C0006105710511F062E005C063E003C061E0E0
:1025D00001C060E009940F931F93CF93DF93EC0148
:1025E000E881F9810480F581E02D8C010D5B1F4F9E
:1025F000D8018C91811102C060E001C062E0CE017F
:102600000995E881F9810480F581E02DD8018C914C
:10261000811102C061E001C063E0CE0109958BA584
:102620009CA58230910538F0880F991F880F991F5B
:1026300005970197F1F7E881F9810480F581E02D94
:10264000D8018C91811102C060E001C062E0CE012E
:10265000DF91CF911F910F910994CF93DF93EC01FC
:1026600020E030E0A9016B897C898D899E890E94D8
:102670000A2E18161CF4EFA5F8A902C0E9A9FAA9B8
:10268000DF91CF9109940F931F93DC011296EC9187
:102690000E2F10E009301105C0F5F801E35AFF4F85
:1026A0000C942B2EDC01ED91FC910084F185E02D42
:1026B00029C0DC01ED91FC910284F385E02D22C05C
:1026C000DC01ED91FC910484F585E02D1BC0DC015B
:1026D000ED91FC910684F785E02D14C0DC01ED91AD
:1026E000FC910088F189E02D0DC0DC01ED91FC9199
:1026F0000288F389E02D06C0DC01ED91FC9104888D
:10270000F589E02D1F910F9109941F910F91089564
:10271000CF93DF9381112DC02091F30330E0AFEE12
:10272000B3E080E090E0821793071CF5ED91FD91F6
:10273000EF01CA5BDF4F4A81641319C0818188238E
:10274000C1F0158616861786108A118A128A138A96
:10275000148A15AA16AA17AA10AE15A216A217A2B5
:1027600010A6158A168A178A108E118202C0019649
:10277000DACFDF91CF91089585ED8093BC008091F1
:10278000BC0084FDFCCF10925F0408954091340496
:10279000262F30E0240F311D21323105DCF4209149
:1027A0005F042430C9F4FC0180E090E0861758F4FF
:1027B000309134042191DC01AC5EBB4FA30FB11DFD
:1027C0002C930196F3CF80913404680F6093340406
:1027D00080E0089581E0089582E0089508950895C5
:1027E0000895E091630480916204E81730F4F0E00A
:1027F000EC50FC4F808190E008958FEF9FEF08959B
:102800009091630480916204981750F4E92FF0E0EE
:10281000EC50FC4F208130E09F5F9093630402C036
:102820002FEF3FEFC90108958091620490E020915D
:102830006304821B91090895CF92DF92EF92FF9279
:102840000F931F93CF93DF937C01CB018A012091DB
:10285000C603222389F0EB016B01C40ED51ECC15F3
:10286000DD0569F06991D701ED91FC910190F0814E
:10287000E02DC7010995F3CF642F0E94C613C8014C
:10288000DF91CF911F910F91FF90EF90DF90CF904C
:102890000895CF93DF931F92CDB7DEB76983209160
:1028A000C6032223D1F020916004203240F021E0C1
:1028B00030E0FC013383228380E090E015C08091FA
:1028C0006104E82FF0E0E953FC4F998190838F5F1A
:1028D000809361048093600405C061E0CE0101969D
:1028E0000E94C61381E090E00F90DF91CF91089590
:1028F000089580E090E00895CF92DF92EF92FF92EA
:102900000F931F93CF93DF93EC019A81943041F0A2
:10291000983031F0933031F0963021F012E003C05E
:1029200014E001C013E02396E12CF12CC62ED12C2B
:1029300001E0C6010E2C02C0959587950A94E2F736
:102940006C8180FD602789910E94211A8FEFE81A1F
:10295000F80AE11670F3DF91CF911F910F91FF906C
:10296000EF90DF90CF900895CF93DF93FC01228109
:102970002223A9F0EC010190F081E02D0480F58183
:10298000E02D60E009958EA58F3F49F061E00E943F
:1029900095226DA58EA5DF91CF910C94211ADF9120
:1029A000CF9108954F925F926F927F928F929F92F4
:1029B000AF92BF92CF92DF92EF92FF920F931F934D
:1029C000CF93DF93EC018F849888A988BA888B8590
:1029D0009C85AD85BE85881A990AAA0ABB0A6B89AF
:1029E0007C898D899E899B01AC010E94752B6B01AE
:1029F0007C016B8D7C8D8D8D9E8D9B01AC010E9429
:102A0000F62C9B01AC01C701B6010E94622D0E9409
:102A1000D42D81149104A104B10499F4623071059C
:102A2000810591050CF079C01BA21CA21DA21EA25B
:102A30001B8A1C8A1D8A1E8A1BAA1CAA1DAA1EAAE2
:102A4000F4C00BA91CA92DA93EA9FE01ED5BFF4F07
:102A5000181419041A041B04FCF4101611061206AB
:102A600013064CF4681579058A059B054CF5208101
:102A7000211153C025C0011511052105310509F4A7
:102A80004CC0681579058A059B050CF046C080810D
:102A9000882309F442C036C0101611061206130628
:102AA000ECF4002711279801081919092A093B0994
:102AB00060177107820793071CF42081222369F1B4
:102AC0009B01AC0188279927DC01821B930BA40B87
:102AD000B50B8BAB9CABADABBEAB1FC001151105ED
:102AE00021053105D1F0CC24DD247601C818D908A0
:102AF000EA08FB086C157D058E059F0574F480813E
:102B000081110BC030952095109501951F4F2F4FC7
:102B10003F4F0BAB1CAB2DAB3EABCBA8DCA8EDA85D
:102B2000FEA88E010D5B1F4FC114D104E104F10416
:102B300091F48FA998ADA9ADBAAD8BAF9CAFADAFF5
:102B4000BEAF81E0181419041A041B040CF080E0D5
:102B5000F80180833EC08BAC9CACADACBEACA50193
:102B60009401C501B4010E94F62C2B013C01C70160
:102B7000B6010E94162B20E030E040E850E40E94AD
:102B8000752B20E030E040E85FE30E94F62C9B01CB
:102B9000AC01C301B2010E94622D9B01AC01C501D1
:102BA000B4010E94F52C2B013C01FE01FF968080B0
:102BB0009180A280B3809401A5010E940A2E18166C
:102BC00014F442015301C401D5018BAF9CAFADAFEA
:102BD000BEAFFFEFCF1ADF0AEF0AFF0ACBAADCAACB
:102BE000EDAAFEAACBACDCACEDACFEACC701B601E5
:102BF0000E94DB2D6BA37CA38DA39EA3A70196014E
:102C000060E074E284E799E40E94622D6B8B7C8B18
:102C10008D8B9E8BF8012081211107C0DC01CB0137
:102C2000B0588B8B9C8BAD8BBE8BDF91CF911F915E
:102C30000F91FF90EF90DF90CF90BF90AF909F905B
:102C40008F907F906F905F904F900895DC01139666
:102C50008C91139781110CC01896ED91FC911997E6
:102C6000309731F04D915C91119712966C910CC098
:102C70001A96ED91FC911B97309739F04D915C912C
:102C8000119712966C9181E009940895CF92DF928A
:102C9000EF92FF92CF93DF93EC010E94C8236B0168
:102CA0007C018C819D81AE81BF81A7019601281B8B
:102CB000390B4A0B5B0B2B30310541055105C0F038
:102CC0008A810E94F819CC82DD82EE82FF829B818C
:102CD000891771F091E0811101C090E09B83CE01D2
:102CE000DF91CF91FF90EF90DF90CF900C9426165C
:102CF000DF91CF91FF90EF90DF90CF900895CF9329
:102D0000DF93EC016A835983488381E08B830E94BF
:102D1000C8236C837D838E839F8360E08A810E94B9
:102D2000952261E08A81DF91CF910C94211A1F9244
:102D30000F920FB60F9211242F933F934F935F93EF
:102D40006F937F938F939F93AF93BF93EF93FF9373
:102D50008091B900887F803609F49CC068F588327C
:102D600009F45BC090F4803109F454C038F488232E
:102D700009F4F6C0883009F44DC0F6C0883109F472
:102D80004CC0803209F45DC0EFC0803409F468C0E3
:102D900048F4803309F455C0883309F0E5C08093C6
:102DA000C503D8C0803509F44FC0883509F45DC02B
:102DB000883409F0D9C0D6C0883909F4C7C0A8F44E
:102DC000883709F467C038F4883609F463C080375F
:102DD00009F460C0C9C0883809F4B8C0803909F462
:102DE0005FC0803809F0C0C05BC0803B09F486C07A
:102DF00038F4803A09F466C0883A09F47FC0B4C058
:102E0000803C09F4A7C0883C09F4A4C0883B09F4BD
:102E10008AC0AAC08091A20310C09091C40380917F
:102E2000C303981770F5E091C40381E08E0F80937F
:102E3000C403F0E0ED55FC4F80818093BB0085EC2E
:102E400086C08093C5038EC0E091C40381E08E0FDD
:102E50008093C4038091BB00F0E0ED55FC4F80836C
:102E60009091C4038091C3036EC0E091C40381E0DC
:102E70008E0F8093C4038091BB00F0E0ED55FC4FB2
:102E8000808380915E0481116DC081E080935D0438
:102E900084EA61C083E080935F0410925604CFCF30
:102EA00080915604803208F051C0E091560481E0D0
:102EB0008E0F809356048091BB00F0E0EA5CFB4FDC
:102EC0008083BDCF85EC8093BC0010925F0480911D
:102ED0005604803230F4E0915604F0E0EA5CFB4F97
:102EE00010826091560470E0E0915904F0915A0408
:102EF00086E394E009951092560436C084E08093EE
:102F00005F041092350410923404E0915B04F09158
:102F10005C04099580913404811105C081E080939F
:102F2000340410921404E091350481E08E0F8093F4
:102F30003504F0E0EC5EFB4F80818093BB00909104
:102F4000350480913404981708F479CF85E880938C
:102F5000BC000AC085EC8093BC0010925F0404C0E2
:102F60001092C5030E94BC13FF91EF91BF91AF91E6
:102F70009F918F917F916F915F914F913F912F9191
:102F80000F900FBE0F901F9018958F929F92AF9247
:102F9000BF92CF92DF92EF92FF920F931F93CF9346
:102FA000DF93EC01B62E0E94C823098D1A8D2B8D5C
:102FB0003C8D6B017C01C01AD10AE20AF30A970129
:102FC0008601CD8CDE8C0D2C000CEE08FF080C1554
:102FD0001D052E053F05C4F0288DFE0134E0239F1A
:102FE000E00DF11D112410821182128213822F5FD5
:102FF000288F6487758786879787698F7A8F8B8FED
:103000009C8F233008F0188EB1101DC0288DFE0152
:1030100044E0249FE00DF11D1124C484D584E6848E
:10302000F7849B01AC012C193D094E095F09690128
:103030007A011216130614061506D4F0C12CD12CF1
:103040007601C39415C0FE019E01245F3F4FC080EE
:10305000D180E280F3804FEFC41AD40AE40AF40A64
:10306000C192D192E192F1922E173F0781F7CECF14
:1030700060817181828193810E94162B20E030E073
:103080004AE754E40E94752B4B015C01C701B6016D
:103090000E94162B9B01AC01C501B4010E94622D58
:1030A0006F8F78A389A39AA3DF91CF911F910F917E
:1030B000FF90EF90DF90CF90BF90AF909F908F9058
:1030C00008958F929F92AF92BF92CF92DF92EF922C
:1030D000FF920F931F93CF93DF93EC0188810E949F
:1030E000F819BB24B394892B09F4B12C0E94C8238E
:1030F0002A812983CB80DC80ED80FE800F811885BA
:10310000B216B9F09B01AC012C193D094E095F09BB
:1031100069017A01012E000C220B330BC016D10677
:10312000E206F3060CF0BA826B837C838D839E8368
:103130001CC0012E000C220B330B4B015C018C18C0
:103140009D08AE08BF0880169106A206B3066CF073
:10315000DC01CB01801B910BA20BB30B0197A109E2
:10316000B1098B839C83AD83BE83DF91CF911F9187
:103170000F91FF90EF90DF90CF90BF90AF909F9016
:103180008F9008952F923F924F925F926F927F920D
:103190008F929F92AF92BF92CF92DF92EF92FF9267
:1031A0000F931F93CF93DF9300D0CDB7DEB78C0181
:1031B00049832A83660F771FF801EA5AFF4FE080A0
:1031C000F180EE0CFF1CF801CF01801B910B8E15D6
:1031D0009F0514F41192F8CF8981F801E60FF71FCB
:1031E00081838A818083480184E5880E911C60E098
:1031F000F40180810E94211A2801F2E54F0E511C32
:10320000380180E5680E711C1E141F043CF5E1E0D6
:10321000EE1AF108F801EE0DFF1DA080F2013080DA
:10322000F301208087E0C82ED12CB12CB5010C2CE5
:1032300002C0759567950A94E2F76170822D0E942D
:10324000211A61E0832D0E94211A60E0832D0E94E3
:10325000211AF1E0CF1AD10848F7D6CF61E0F40186
:1032600080810F900F90DF91CF911F910F91FF9070
:10327000EF90DF90CF90BF90AF909F908F907F9016
:103280006F905F904F903F902F900C94211ACF92A7
:10329000DF92EF92FF921F93CF93DF937C016B013C
:1032A000EB0183E0CC0FDD1F8A95E1F76096CE0D30
:1032B000DF1D11E0199220E0412FB601C7010E94E5
:1032C000C2181F5F1930B1F7DF91CF911F91FF90A6
:1032D000EF90DF90CF90089577FD10C0FC01EA5A7F
:1032E000FF4F208131816217730744F4442311F0AA
:1032F00020E001C021E04CE00C94C2180895CF9268
:10330000DF92EF92FF920F931F93CF93DF936C01A5
:103310007B018A01C0E0D0E0C017D10760F4B6019C
:103320006C0F7D1F41E050E0C7018C0F9D1F0E9474
:10333000332C2196F1CFC801DF91CF911F910F91CE
:10334000FF90EF90DF90CF900895209158042111C5
:1033500003C08FEF9FEF08955FB7F89422E02093AA
:10336000E9002091F20030E01216130614F421E077
:1033700030E0422FFC0184E6415038F028988093D9
:1033800057049091F1009193F7CF2115310521F069
:103390008091F200882319F05FBFC90108958BE680
:1033A0008093E800F9CF2FB7F89483E08093E90089
:1033B0009091E800892F807295FF04C09091F200EF
:1033C00080E4891B2FBF08958091830481110DC073
:1033D00082E080937F0484E08093800410928204D2
:1033E0001092810481E0809383048FE794E0089534
:1033F000CF93DF93282F30E0F901EF5FFD4F8491E9
:10340000F901EE51FE4FD491F901ED53FE4FC491F5
:10341000CC2391F081110E945822EC2FF0E0EE0FA6
:10342000FF1FEB54FE4FA591B491EC91ED2381E089
:1034300090E021F480E002C080E090E0DF91CF9145
:1034400008951F93CF93DF93282F30E0F901EF5FAA
:10345000FD4F8491F901EE51FE4FD491F901ED53E6
:10346000FE4FC491CC23C1F0162F81110E94582227
:10347000EC2FF0E0EE0FFF1FE955FE4FA591B49140
:103480009FB7F894111104C08C91D095D82302C035
:10349000EC91DE2BDC939FBFDF91CF911F910895BC
:1034A0002F923F924F925F926F927F928F929F9254
:1034B000AF92BF92CF92DF92EF92FF920F931F9342
:1034C000CF93DF93CDB7DEB7C751D1400FB6F89495
:1034D000DEBF0FBECDBF1A821982FE0133962FEFD9
:1034E000DF011D922A95E9F7C25FDE4F198218822B
:1034F000CE50D14040E051E0BE016F5F7F4F0E944F
:10350000BF21AE01425F5E4F6BE872E0CE010196D3
:103510000E94CB2AFC012081222309F41AC516E05F
:10352000712E08E0402E0E94862A0197893091056D
:1035300008F003C48A599F4FFC01AE01425F5E4F01
:103540006BE872E080E090E00C942B2E0E94CB2A76
:103550008C01AE01425F5E4F6DE872E080E090E06A
:103560000E94CB2A7C01C8010E94862AD0907E044A
:10357000F0E1DF1609F4EAC38C01112708591B4F4B
:10358000D8012C912111E2C3A701682FCE018E5FD3
:103590009E4F0E947F168CE08D9DD0011124A25871
:1035A000B94FFE01EE5FFE4F982F01900D929A9554
:1035B000E1F790917E04899FF0011124E258F94FC0
:1035C0002BE035E0338722873187208781E0D801DF
:1035D0008C939F5F90937E04B9C30E94CB2A8C0189
:1035E000AE01425F5E4F6DE872E080E090E00E94C5
:1035F000CB2AC8010E94862A7C01D0906704BAE0D9
:10360000DB1609F4A3C38C01112708591B4FF801DD
:10361000808181119BC361E08E2D0E94952260E024
:1036200070E08E2D0E94D122ED2DF0E0EE0FFF1FF5
:10363000E25CF84FE082118283E0D8018C93D3944E
:10364000D092670483C30E94CB2A8C01AE01425FF3
:103650005E4F6BE872E080E090E00E94CB2A7C0134
:10366000AE01425F5E4F6BE872E080E090E00E9446
:10367000CB2A6C01AE01425F5E4F6BE872E080E0E6
:1036800090E00E94CB2A4C01AE01425F5E4F6BE896
:1036900072E080E090E00E94CB2A5C01AE01425FC4
:1036A0005E4F6DE872E080E090E00E94CB2AC4019A
:1036B0000E94862A682EC5010E94862A1C01C60126
:1036C0000E94862A6C01C7010E94862A4C01C8010B
:1036D0000E94862A7C0150906604B1E05B1609F4D2
:1036E00035C39927FC01E859FB4FCE5EDE4FF983C5
:1036F000E883C251D1408081811128C3C601992736
:103700009C0128593B4FCC5EDE4F39832883C4513E
:10371000D140D9018C91811119C3F401FF27C05FF9
:10372000DE4FF983E883C051D140E859FB4F8081D7
:1037300081110CC318C30E94CB2A8C01AE01425FD9
:103740005E4F6BE872E080E090E00E94CB2A7C0143
:10375000AE01425F5E4F6BE872E080E090E00E9455
:10376000CB2A6C01AE01425F5E4F6BE872E080E0F5
:1037700090E00E94CB2A5C01AE01425F5E4F6BE895
:1037800072E080E090E00E94CB2AAE01425F5E4F83
:103790006DE872E080E090E00E94CB2AC5010E94B3
:1037A000862A5C01C6010E94862A6C01C7010E941C
:1037B000862A7C01C8010E94862A00E010E047C0EA
:1037C0000E94CB2A4C01AE01425F5E4F6BE872E073
:1037D00080E090E00E94CB2A7C01AE01425F5E4F08
:1037E0006BE872E080E090E00E94CB2A6C01AE01B1
:1037F000425F5E4F6BE872E080E090E00E94CB2A6F
:103800005C01AE01425F5E4F6BE872E080E090E0E9
:103810000E94CB2A8C01AE01425F5E4F6DE872E0E0
:1038200080E090E00E94CB2AC8010E94862A8C0189
:10383000C5010E94862A5C01C6010E94862A6C018D
:10384000C7010E94862A7C01C4010E94862A950134
:10385000A601B7010E943D0979C20E94CB2A8C01C2
:10386000AE01425F5E4F6DE872E080E090E00E9442
:10387000CB2AC8010E94862AD0906504B2E0DB16EC
:1038800009F464C29C013327F901E859FB4F7F0119
:10389000208121115BC2FBE1DF9E800111240852CF
:1038A0001B4FD80119961C921997F8011586168698
:1038B0001786108A51961D921D921D921C92549744
:1038C00012961C921E921197E4EBF0E01496FC9372
:1038D000EE93139716961C921E9215971896FC93CA
:1038E000EE9317978C930E94C823D80155966D9339
:1038F0007D938D939C935897F7017082D394D092C7
:10390000650424C20E94CB2A7C01AE01425F5E4F57
:103910006BE872E080E090E00E94CB2A6C01AE017F
:10392000425F5E4F6DE872E080E090E00E94CB2A3B
:103930008C01C6010E94862AD82EC7010E94862AC1
:10394000980140E02EC00E94CB2A7C01AE01425F6C
:103950005E4F6BE872E080E090E00E94CB2A6C0141
:10396000AE01425F5E4F6BE872E080E090E00E9443
:10397000CB2A5C01AE01425F5E4F6DE872E080E0F1
:1039800090E00E94CB2A8C01C5010E94862AB82EA5
:10399000C6010E94862AD82EC7010E94862A980155
:1039A0004B2D6D2D0E942208D1C10E94CB2A8C0183
:1039B000AE01425F5E4F6BE872E080E090E00E94F3
:1039C000CB2A7C01AE01425F5E4F6BE872E080E083
:1039D00090E00E94CB2A6C01AE01425F5E4F6DE821
:1039E00072E080E090E00E94CB2AC6010E94862A05
:1039F000B82EC7010E94862AA82EC8010E94862AD6
:103A0000982E80916404823009F4A0C1E82EF12C34
:103A10007E9CC0017F9C900D11249C0124533B4F40
:103A20006901D90113969C9213971496AC9214973E
:103A30001596BC928CE090E00E94312E8C01FC0126
:103A4000138212822BE232E0318320839482A0869B
:103A5000B18612864386D60111969C938E9381E09F
:103A600012968C9310926304109262041092610477
:103A70001092600410925F0480935E0410925D04C3
:103A800061E082E00E94211A61E083E00E94211A35
:103A90008091B9008E7F8093B9008091B9008D7FAD
:103AA0008093B90088E48093B80085E48093BC00DB
:103AB000EEEEF3E1F0935C04E0935B042FEE33E170
:103AC00030935A0420935904D80115961C921597E7
:103AD00019968C911997823010F015964C92F80136
:103AE0009285992329F0813019F48581846085833A
:103AF00062E370E080E090E00E948E23D8011B9684
:103B00006C91C8010E94801068EE73E080E090E044
:103B10000E948E2360E3C8010E94E4108BE496E4C7
:103B20000197F1F760E3C8010E94E4108BE496E48A
:103B30000197F1F760E3C8010E94E41083E592E089
:103B40000197F1F760E2C8010E94E410F801658175
:103B5000606240E0C8010E94FD1084E0D801169622
:103B60008C9340E06CE0C8010E94FD1040E061E0F1
:103B7000C8010E94FD108BE39FE10197F1F782E0FD
:103B8000F801878340E066E0C8010E94FD1040E034
:103B900062E0C8010E94FD108BE39FE10197F1F7FD
:103BA0007E9C80017F9C100D112404531B4FD80173
:103BB0008D919C91FC01438660E00E948010D801A9
:103BC00012968C911297882309F4B1C015966C91C6
:103BD0001597669561508D919C910E940722B12C9A
:103BE0006801B4E0CB0ED11C4B2D50E0F6012081D2
:103BF00030E0C9010A9797FD01969595879548177A
:103C0000590749F06FE872E0D8018D919C910E94AC
:103C10006B10B394E9CF7E9C80017F9C100D112422
:103C200004531B4F6CE272E0F801808191810E9485
:103C30004710B12C6801F4E0CF0ED11C4B2D50E0A1
:103C4000D6012C9130E0C9010A9797FD0196959510
:103C500087954817590749F06AE272E0F8018081B8
:103C600091810E944710B394E9CF7E9C80017F9C94
:103C7000100D112404531B4FD80115966C91159704
:103C800066958D919C910E940722B12C6801B4E049
:103C9000CB0ED11C4B2D50E0F601208130E0C90144
:103CA000069797FD0196959587954817590749F00E
:103CB00068E272E0D8018D919C910E944710B39404
:103CC000E9CF7E9C80017F9C100D112404531B4F73
:103CD00061E272E0F801808191810E944710B12C6D
:103CE0006801F4E0CF0ED11C4B2D50E0D6012C9191
:103CF00030E0C901069797FD01969595879548177D
:103D0000590749F06FE172E0F801808191810E94CA
:103D10004710B394E9CF7E9CF0017F9CF00D1124F5
:103D2000E453FB4F60E0808191810E9407228091E3
:103D300064048F5F8093640409C0AE01425F5E4FEC
:103D40006DE872E080E090E00E94CB2AAE01425F15
:103D50005E4F6BE872E080E090E00E94CB2A009713
:103D600009F0E1CBF6C0252D30E0CA5EDE4F398385
:103D70002883C651D14088E590E00E94312E8C0105
:103D8000C1019927F801E05BFF4FF182E082580101
:103D900032E5A30EB11CD501CD92DC926801B4E5E9
:103DA000CB0ED11CF601918280829C0121503109F9
:103DB0002830310508F0CAC04801F6E58F0E911C85
:103DC000D4018D939C9361E08E2D0E94952261E039
:103DD000F50180810E94952261E0D6018C910E94BC
:103DE000952261E0F60180810E94211AD801A05B32
:103DF000BF4F1196FC92EE92F80170961192AE1799
:103E0000BF07E1F7E12CF12CD4018D919C91E816CC
:103E1000F9067CF520E04FE0B701C8010E94C21806
:103E2000F7FC0CC0F40180819181E816F90634F4A6
:103E300027E04BE0B701C8010E94C21820E049E02A
:103E4000B701C8010E94C218F7FC0AC0D4018D91C5
:103E50009C91E816F90624F4B701C8010E9447199D
:103E600041E0B701C8010E946C19BFEFEB1AFB0AD1
:103E7000CBCFCA5EDE4FE881F981C651D140EE0F4B
:103E8000FF1FEE0FFF1FE658F94FDF010D931D9343
:103E900081E082832382E12CF12C8F0133965F0134
:103EA0006D01D5018C91282F30E02E153F0591F141
:103EB000F6019081992399F0E81688F4B7017727E5
:103EC000D8018D919C91FC01EA5AFF4F20813181EC
:103ED0006217730724F4262D4AE00E94C21840E0BE
:103EE000B701F801808191810E946C19F7FC0EC026
:103EF000D8018D919C91FC01EA5AFF4F20813181BC
:103F0000E216F3061CF4B7010E944719BFEFEB1A43
:103F1000FB0AC7CF84E0CE5EDE4FE881F981C25153
:103F2000D1408083C05FDE4FE881F981C051D1402C
:103F3000E859FB4F8083CC5EDE4FA881B981C45124
:103F4000D1408C9353945092660400CF88E090E067
:103F500033CFC95EDE4F0FB6F894DEBF0FBECDBFC4
:103F6000DF91CF911F910F91FF90EF90DF90CF9055
:103F7000BF90AF909F908F907F906F905F904F9089
:103F80003F902F9008950E941830EF92FF920F9368
:103F90001F93CF93DF93EC01198218821B821A8240
:103FA0001D821C8261157105B9F17B01FB01019035
:103FB0000020E9F731978F01061B170BB8016F5FDF
:103FC0007F4F80E090E00E94522F009759F0998334
:103FD00088831B830A832C813D81232B81F4FC0180
:103FE00010820DC088819981009711F00E94C92E1E
:103FF000198218821D821C821B821A820DC01D83A9
:104000000C83B70188819981DF91CF911F910F9126
:10401000FF90EF900C942630DF91CF911F910F917C
:10402000FF90EF900895AC011092A7079091370888
:1040300080913608FA01BF01641B750BDF012081F6
:10404000222381F03091A7072093A707291304C0EA
:10405000931302C01092A70731962C912813EBCF2F
:10406000931749F3CB010895FC01DC01A85BBF4F16
:104070008C918823D1F08181811117C081E08183E7
:1040800081899289A389B48980369947AE4FBF4F01
:1040900061F080E699E7AEEFBFEF818B928BA38B47
:1040A000B48BCF0102960C94D21408950F931F93F2
:1040B000CF93DF9380912B08882309F442C081308D
:1040C00031F482E080932B08CBEAD7E002C0C0E055
:1040D000D0E080912C08882351F1209721F4C091E1
:1040E0003008D09131088E01CE010E941320892B17
:1040F00029F42196F80180818111F5CFF8018081A2
:10410000882309F1C8010E941320F801E80FF91F64
:104110008081882311F010823196F0933108E0936A
:104120003008902F812F90932E0880932F08809134
:104130002E0890912F08892B21F081E080932C0884
:1041400005C080E003C090E080E0EDCFDF91CF912B
:104150001F910F9108950E945620882359F081E005
:1041600080932C0880932D0880912E0890912F0821
:104170000C94862A10922D0880E090E008950E9409
:104180005620882351F081E080932C0880932D08DD
:1041900080912E0890912F08089510922D0880E0AC
:1041A00090E008958F929F92AF92BF92EF92FF920C
:1041B0000F931F93CF93DF93CDB7DEB7A1970FB6C1
:1041C000F894DEBF0FBECDBF7C01FA01CB0119A26E
:1041D000223008F42AE08E010F5D1F4F822E912CB1
:1041E000A12CB12CBF01A50194010E94C42CF9019E
:1041F000CA01015011096A3014F4605D01C0695CA4
:10420000D8016C93232B242B252B61F7B801C70110
:104210000E946B10A1960FB6F894DEBF0FBECDBF03
:10422000DF91CF911F910F91FF90EF90BF90AF90D2
:104230009F908F900895CF92DF92EF92FF920F930D
:104240001F93CF93DF9377FF1DC06A017B01EC01C1
:104250006DE20E9440108C0144275527BA014C1989
:104260005D096E097F092AE0CE010E94D220800FED
:10427000911FDF91CF911F910F91FF90EF90DF90F1
:10428000CF9008952AE0DF91CF911F910F91FF9079
:10429000EF90DF90CF900C94D220AC018091A207D8
:1042A00081110FC081E08093A2078093A907052E9A
:1042B000000C660B770B80913308909134080C94B6
:1042C0001B2108958091A2078823A1F060913508F1
:1042D00080913308909134080E9440108091AA0781
:1042E000882341F068E972E08091330890913408A6
:1042F0000E946B101092A9071092A20780E0089507
:10430000CF93DF932091A20721111AC0EB010E94E5
:104310004D218091A207882379F060913608809121
:104320003308909134080E944010BE0180913308F8
:10433000909134080E944710DF91CF910C94622134
:1043400080E0DF91CF910895CF93DF932091A20772
:10435000222391F0EC01609136088091330890910E
:1043600034080E944010BE018091330890913408B7
:10437000DF91CF910C946B10DF91CF9108950F9343
:104380001F93CF93DF93FC01C481D581209719F44B
:10439000FB01108211C0415051094C175D0708F410
:1043A000EA018B01FC0160817181AE01C8010E94AC
:1043B0002D30C00FD11F1882DF91CF911F910F9127
:1043C0000895CF92DF92EF92FF920F931F93CF93B6
:1043D000DF936C017B018A01C0E0D0E0C017D107F8
:1043E00060F4B6016C0F7D1F41E050E0C7018C0FF7
:1043F0009D1F0E94432C2196F1CFC801DF91CF91E0
:104400001F910F91FF90EF90DF90CF900895CF9381
:10441000DF93CDB7DEB728970FB6F894DEBF0FBE97
:10442000CDBF28E0E3E4F2E0DE01119601900D92A9
:104430002A95E1F7FC012185261710F46FEF620F32
:10444000FE013196E60FF11DE60FF11D60816068F7
:1044500040E028960FB6F894DEBF0FBECDBFDF91C7
:10446000CF910C94FD101F93CF93DF93EC01162F87
:10447000688385E090E098878F8360E0812F0E94B9
:10448000952261E0812F0E94211A0E94C8236B832C
:104490007C838D839E8388810E94F81921E0892B7B
:1044A00009F420E02A832983DF91CF911F91089599
:1044B00090E0FC013197EF30F105B0F5E159FF4F85
:1044C0000C942B2E809180008F7703C08091800008
:1044D0008F7D80938000089580918000877FF9CF41
:1044E00084B58F7702C084B58F7D84BD0895809197
:1044F00090008F7707C0809190008F7D03C08091DE
:104500009000877F8093900008958091C0008F77FE
:1045100003C08091C0008F7D8093C000089580917A
:10452000C200877F8093C2000895CF93DF9390E00D
:10453000FC01EE51FE4F2491FC01ED53FE4F84919E
:10454000882361F190E0880F991FFC01E95CFD4F21
:10455000C591D491FC01E955FE4FA591B49161112B
:1045600009C09FB7F8948881209582238883EC91B5
:104570002E230BC0623061F49FB7F8948881322FEC
:10458000309583238883EC912E2B2C939FBF06C0FC
:104590008FB7F894E8812E2B28838FBFDF91CF91BE
:1045A00008951F93CF93DF93182FEB0161E00E94D2
:1045B0009522209711F460E004C0CF3FD10539F473
:1045C00061E0812FDF91CF911F910C94211AE12F8F
:1045D000F0E0EF5FFD4FE4918E2F90E0FC0131970A
:1045E000EF30F10508F06CC0E258FF4F0C942B2E11
:1045F00084B5806884BDC7BD68C084B5806284BD51
:10460000C8BD63C080918000806880938000D09393
:104610008900C093880059C0809180008062809397
:104620008000D0938B00C0938A004FC0809180009F
:10463000886080938000D0938D00C0938C0045C02B
:1046400080919000806880939000D0939900C093EF
:1046500098003BC080919000806280939000D0933E
:104660009B00C0939A0031C0809190008860809335
:104670009000D0939D00C0939C0027C08091C00003
:1046800080688093C0008091C0008F7B8093C000C1
:10469000C093CF001AC08091C00080628093C00098
:1046A000C093D00012C08091C20088608093C20085
:1046B0008091C2008B7F8093C200C093D20005C05E
:1046C000C038D1050CF07CCF76CFDF91CF911F9110
:1046D00008953FB7F89480917B0890917C08A09151
:1046E0007D08B0917E0826B5A89B05C02F3F19F024
:1046F0000196A11DB11D3FBFBA2FA92F982F882762
:10470000820F911DA11DB11DBC01CD0142E0660FBC
:10471000771F881F991F4A95D1F708958F929F920E
:10472000AF92BF92CF92DF92EF92FF926B017C012A
:104730000E9469234B015C01C114D104E104F1041E
:10474000F1F00E946923DC01CB0188199909AA09BB
:10475000BB09883E9340A105B10570F321E0C21A60
:10476000D108E108F10888EE880E83E0981EA11CAC
:10477000B11CC114D104E104F10419F7DDCFFF909D
:10478000EF90DF90CF90BF90AF909F908F90089563
:104790002FB7F89460917708709178088091790824
:1047A00090917A082FBF08951F920F920FB60F9223
:1047B00011242F933F938F939F93AF93BF93809137
:1047C000770890917808A0917908B0917A08309193
:1047D000760823E0230F2D3720F40196A11DB11D8B
:1047E00005C026E8230F0296A11DB11D209376086F
:1047F0008093770890937808A0937908B0937A080B
:1048000080917B0890917C08A0917D08B0917E08F2
:104810000196A11DB11D80937B0890937C08A09305
:104820007D08B0937E08BF91AF919F918F913F918A
:104830002F910F900FBE0F901F901895789484B50C
:10484000826084BD84B5816084BD85B5826085BD8C
:1048500085B5816085BD80916E00816080936E001A
:10486000109281008091810082608093810080910C
:1048700081008160809381008091800081608093BD
:1048800080008091910082608093910080919100DE
:10489000816080939100809190008160809390006E
:1048A0008091C10084608093C1008091C1008260CA
:1048B0008093C1008091C10081608093C10080918C
:1048C000C30081608093C3008091C00082608093A8
:1048D000C0008091C20081608093C20080917A0004
:1048E000846080937A0080917A00826080937A005D
:1048F00080917A00816080937A0080917A0080684C
:1049000080937A001092580410928C0410928B04B9
:104910008091D70081608093D70080EA8093D8008F
:1049200089B5806189BD89B5826089BD09B400FE01
:10493000FDCF61E070E080E090E00E948E238091E6
:10494000D8008F7C80618093D8008091E000807FC8
:104950008093E0008091E1008E7E8093E1008DE005
:104960008093E200559A209A8FEF9FEF90935F0714
:1049700080935E0784EB94E0909339088093380825
:1049800084E694E090933B0880933A0888E196E0AF
:1049900090933D0880933C088CE994E090936F08D5
:1049A00080936E088EE994E090933F0880933E08D0
:1049B00089E094E090934108809340088BEF92E067
:1049C000909343088093420887E292E090934D08C9
:1049D00080934C0883E192E09093530880935208AF
:1049E0008EED96E090935108809350088BED94E003
:1049F00090935508809354088DEC94E09093570859
:104A0000809356088EEB96E090935B0880935A084B
:104A100083ED95E0909361088093600886EC95E0C3
:104A200090936308809362088DEE93E090936508FD
:104A30008093640887E492E0909367088093660807
:104A40008AE591E090936908809368088AE597E089
:104A500090936B0880936A0886E792E090936D08C4
:104A600080936C0881E08093AA070E945A079924DA
:104A700093948091A9078111C3C0809133089091CC
:104A80003408DC01ED91FC910084F185E02D09955D
:104A9000892B09F4B5C08091330890913408DC016A
:104AA000ED91FC910084F185E02D0995803491050C
:104AB0000CF0A2C08091330890913408DC01ED9194
:104AC000FC910084F185E02D09957C01C0913308AB
:104AD000D09134080BEEA02E07E0B02E650100E067
:104AE00010E0E016F10619F4C0E0D0E056C00E94D4
:104AF000C823688779878A879B87E881F981028440
:104B0000F385E02DCE01099597FF51C30E94C8237C
:104B1000488459846A847B84DC01CB01841995091B
:104B2000A609B7094C805D806E807F80841595054D
:104B3000A605B70510F3D8CFF50191915F0110924A
:104B40002B08309137082091A8079093A807931756
:104B500041F1409135088091A407E82FF0E0EE552F
:104B6000F84F941323C0321709F11186882321F0DE
:104B700090922B081092A8071092A40710922F0869
:104B800010922E08109231081092300890922C0842
:104B900080912B08813099F02196CE15DF0564F2C3
:104BA00068CF9213D6CF1092A807D3CF91878F5F8B
:104BB0008093A4079091A6078917F0F6E9CF0E9489
:104BC000AB208093A3078E3178F420912D08222307
:104BD00059F0FC01FF27EE0FFF1FE65CF74F019035
:104BE000F081E02D309731F4E0913808F0913908E8
:104BF000309791F20995D0CF90E4E92EF12C66CF51
:104C0000809198048111DDC20E94C82300918D0417
:104C100010918E0420918F0430919004DC01CB011F
:104C2000801B910BA20BB30B813A9B4BAD40B1059E
:104C300008F0C3C280919704882309F4B0C2CEE77C
:104C4000D6E000E010E080917E0490E080179107AC
:104C500039F0CE010E9446160F5F1F4F2C96F3CFFE
:104C6000CEE0D5E005E315E0212C312C80919604AF
:104C700090E08215930509F484C18A81882309F4A0
:104C800078C1CE0103960E946118CE010C960E9455
:104C90006118DE8421E0D2268D2D880FDD80D2269A
:104CA000D82A60E0C8010E94C517CD88DC1409F439
:104CB000A6C07E0146E4E40EF11CD7016D917D9102
:104CC0008D919C910E94D42D65307105B4F0F7014F
:104CD00060817181828193810E94D42D6031710540
:104CE0007CF4D7016D917D918D919C910E94D42D82
:104CF0007B01B5E0EB1AF10806C0E12CF12C03C0F2
:104D0000BAE0EB2EF12C8E8D9F8DA8A1B9A18A8CD3
:104D10009B8CAC8CBD8CBC01CD01681979098A09CA
:104D20009B096E317105810591054CF02EE130E053
:104D300040E050E00E945B2CCA01B90104C061E070
:104D400070E080E090E04701FF0CAA08BB08A501D5
:104D500094010E940F2E9B01AC01C501B4010E9479
:104D60000F2E9B01AC01C501B4010E940F2E28EE4D
:104D700033E040E050E00E945B2C49015A01EFEF24
:104D80008E1A9E0AAE0ABE0A2C2D44E02402F001BF
:104D900011248D2D0D2C000C990BE82BF92BED5CBB
:104DA000FD4F6081062E000C770B689DA001699D68
:104DB000500D789D500D11242E893F89420F531FAD
:104DC0005F8B4E8B5BE5529D9001539D300D1124FE
:104DD000225F3A4FF901E80FF91F82A1882371F091
:104DE00061E0C8010E94C5178E899F890EA002C08C
:104DF000959587950A94E2F7998F888FDD8A888C3C
:104E0000998C092C000CAA08BB08F80185A196A171
:104E1000A7A1B0A588169906AA06BB0609F4A9C0E1
:104E200075016401C81AD90AEA0AFB0AF7FE05C02F
:104E300044244A94542C320104C0412C512C320198
:104E40004394B701A601F7FE07C044275527BA01CE
:104E50004C195D096E097F09D801D2968D919C91FC
:104E6000D397A0E0B0E0481759076A077B0714F50D
:104E7000B1E04B1651046104710471F4D8019996A4
:104E8000ED91FC919A97309739F093964D915C9102
:104E90009497688180E021C0D8019D96ED91FC91A6
:104EA0009E97309751F193964D915C9194976981BB
:104EB00082E022C0B1E04B1651046104710479F420
:104EC000D8019B96ED91FC919C97309741F0939679
:104ED0004D915C919497688181E0099534C0D80127
:104EE0009F96ED91FC91D097309739F093964D9124
:104EF0005C919497698183E00995B1E04B16510468
:104F00006104710401F1472046204520409451F589
:104F1000CC0CDD1CEE1CFF1CD501C4018C199D09B5
:104F2000AE09BF098038914CAF4FBF4FDCF48E897A
:104F30009F89837099279F8B8E8B198E188E812C59
:104F4000912C54010FC0CC0CDD1CEE1CFF1CC80CB6
:104F5000D91CEA1CFB1CF1E8CF16FEE3DF06E104D6
:104F6000F1042CF7D80195968D929D92AD92BC924A
:104F70009897BFEF2B1A3B0AC55ADF4F055A1F4FB0
:104F800075CE71E9C72E74E0D72EE12CF12C8091FB
:104F9000950490E08E159F0509F452C0F601C19169
:104FA000D1916F018DA19EA1AFA1B8A5892B8A2BAC
:104FB0008B2BE9F10E9469234B015C0189A59AA51D
:104FC000ABA5BCA5B501A401481B590B6A0B7B0B13
:104FD0008DA19EA1AFA1B8A5481759076A077B0705
:104FE00030F1FE01EB5BFF4F20818D859E85AF8503
:104FF000B889222321F00196A11DB11D03C001979C
:10500000A109B1098D879E87AF87B88B4D855E85D5
:105010006F8578898E010E5F1F4FC8010E94431370
:1050200089A69AA6ABA6BCA6C8010E94D214CE013E
:105030008A5B9F4F0E944616FFEFEF1AFF0AA7CF29
:10504000C8EDD4E000E010E058E8E52EF12C68E56A
:10505000C62E62E0D62E8091650490E080179107FD
:1050600009F49DC089899A89AB89BC894D855E8583
:105070006F85788984179507A607B70709F48BC051
:10508000481759076A077B0724F40197A109B1095A
:1050900003C00196A11DB11D898B9A8BAB8BBC8B74
:1050A0000E94C8236D8B7E8B8F8B988F89899A89FC
:1050B000803222E092070CF03DC097FD06C0853B90
:1050C00091052CF084EB90E002C080E090E02B850D
:1050D0004701821A910827FD9394D401AA0FBB1FA0
:1050E000AA0FBB1F4D01BB0FAA08BB082C85A60148
:1050F000421B510927FD53959A01220F331F220F9E
:10510000331FA901330F660B770B9A01AB012819E6
:1051100039094A095B09DC010E94852C24EB30E047
:1051200040E050E00E945B2CDA01C901880D991D16
:10513000AA1DBB1D2A852C3070F53B85A701431B9A
:10514000510937FD5395440F551F440F551F8417C0
:1051500095077CF03C85B601631B710937FD73959B
:10516000660F771F660F771FAC01681779070CF47D
:10517000AB01CA010297880F991F4FB7F89430E02E
:10518000F901EE0FFF1F2E0F3F1FF901E955FB4FED
:10519000928381834FBF0F5F1F4F6B965CCF80E080
:1051A00090E0892B09F463CC0E94000060CCF601EA
:1051B00081936F010F5F1F4F94CC81E0809398041F
:1051C00019C00E94C82300918D0410918E04209173
:1051D0008F0430919004DC01CB01801B910BA20B5A
:1051E000B30B803A9B4BAD40B10508F023CD109234
:1051F000980480E00E94DD071DCDFF920F931F935E
:10520000CF93DF93109255071092540788EE93E0E6
:10521000A0E0B0E08093560790935707A0935807FB
:10522000B09359072FE432E030935307209352078D
:105230002FEF3FEF30935F0720935E0710929C049F
:1052400010929B0480939D0490939E04A0939F04CE
:10525000B093A0048DE692E090939A048093990411
:1052600084E690E09093A6048093A50410923908F8
:105270001092380882E597E09093340880933308C1
:105280001092AA078CE2809336088BE3809335084E
:105290008FE28093370880E48093A5078FE38093A3
:1052A000A6071092A40710922F0810922E081092B1
:1052B00031081092300881E080932C08EAE3F8E08E
:1052C00086E798E0119211928E179F07D9F71092F6
:1052D000A907CEE3D7E002E517E0FF24F394F882B4
:1052E000198261E081E00E949522698170E08881E5
:1052F0000E94D12222960C171D0789F7CEE7D6E02F
:1053000041E952E061E0CE010E947F162C9637E021
:10531000CE33D307A9F710927C06EEE0F5E027E440
:1053200082E390E0DF011396ED01322F19923A9556
:10533000E9F7AA5ABF4F8D939C931282E55AFF4F0B
:10534000C6E0EA37FC0771F78091CB048C3020F07F
:105350008FEF8093E20413C091E0980F9093CB04F9
:105360008093E20490E0FC01EE0FFF1F8E0F9F1F61
:10537000FC01E955FB4F88EB9BE092838183809190
:10538000CB048C3020F08FEF8093FD0413C091E0AC
:10539000980F9093CB048093FD0490E0FC01EE0FF6
:1053A000FF1F8E0F9F1FFC01E955FB4F88EB9BE011
:1053B000928381831092CE041092D404DF91CF9116
:1053C0001F910F91FF9008958F929F92AF92BF927D
:1053D000CF92DF92EF92FF92CF93DF93EC0168813F
:1053E00079818A819B81611571058105910521F47F
:1053F00064E279ED8BE597E02DE133EF41E050E099
:105400000E945B2C49015A019B01AC01A7EAB1E45F
:105410000E947A2C6B017C01ACEEB4EFA5019401E3
:105420000E94882CDC01CB018C0D9D1DAE1DBF1D83
:10543000B7FF03C00197A109B04888839983AA8365
:10544000BB83BC01CD019F77DF91CF91FF90EF909F
:10545000DF90CF90BF90AF909F908F9008958F92E4
:105460009F92AF92BF92CF92DF92EF92FF926091A4
:105470005B0170915C0180915D0190915E0161150D
:1054800071058105910521F464E279ED8BE597E0E2
:105490002DE133EF41E050E00E945B2C49015A01BD
:1054A0009B01AC01A7EAB1E40E947A2C6B017C015C
:1054B000ACEEB4EFA50194010E94882CDC01CB0175
:1054C0008C0D9D1DAE1DBF1DB7FF03C00197A10927
:1054D000B04880935B0190935C01A0935D01B09311
:1054E0005E01BC01CD019F77FF90EF90DF90CF90E0
:1054F000BF90AF909F908F90089560935B017093E1
:105500005C0180935D0190935E010895FC01882702
:105510009927E89421912032E9F3293010F02E30B8
:10552000C8F32B3241F02D3239F4689404C00E9444
:10553000072B820F911D219120532A30C0F31EF4B6
:10554000909581959F4F08951F93FC019927882777
:10555000BC01E89411911032E9F3193010F01E30BB
:10556000C8F31B3251F01D3249F4689406C00E9402
:10557000F22A610F711D811D911D119110531A3076
:10558000B0F33EF490958095709561957F4F8F4F65
:105590009F4F1F910895FA01A191B081009719F4CE
:1055A0001097E1F0CD01DC01CD010D90002011F448
:1055B000C00113C0FB012191222319F02015D9F756
:1055C000F3CFFB012191201519F41E92119606C00C
:1055D0002223C1F70D900020A1F7D001FA01A19379
:1055E000B0830895592F482F372F262F660F771F26
:1055F000881F991F660F771F881F991F620F731FDF
:10560000841F951F660F771F881F991F08957AE0E2
:10561000979F902D879F802D910D112408950E94B2
:10562000512B08F481E00895E89409C097FB3EF4FB
:1056300090958095709561957F4F8F4F9F4F9923DF
:10564000A9F0F92F96E9BB279395F695879577955D
:105650006795B795F111F8CFFAF4BB0F11F460FF1D
:105660001BC06F5F7F4F8F4F9F4F16C0882311F075
:1056700096E911C0772321F09EE8872F762F05C089
:10568000662371F096E8862F70E060E02AF09A9524
:10569000660F771F881FDAF7880F9695879597F919
:1056A0000895990F0008550FAA0BE0E8FEEF1616B3
:1056B0001706E807F907C0F012161306E407F50706
:1056C00098F0621B730B840B950B39F40A2661F07A
:1056D000232B242B252B21F408950A2609F4A1401D
:1056E000A6958FEF811D811D08950E94882B0C9433
:1056F000F92B0E94EB2B38F00E94F22B20F095231F
:1057000011F00C94E22B0C94E82B11240C942D2C0A
:105710000E940A2C70F3959FC1F3950F50E0551F1E
:10572000629FF001729FBB27F00DB11D639FAA27F6
:10573000F00DB11DAA1F649F6627B00DA11D661F45
:10574000829F2227B00DA11D621F739FB00DA11D66
:10575000621F839FA00D611D221F749F3327A00D20
:10576000611D231F849F600D211D822F762F6A2FBC
:1057700011249F5750409AF0F1F088234AF0EE0F21
:10578000FF1FBB1F661F771F881F91505040A9F74E
:105790009E3F510580F00C94E22B0C942D2C5F3F22
:1057A000E4F3983ED4F3869577956795B795F7958A
:1057B000E7959F5FC1F7FE2B880F911D9695879502
:1057C00097F9089597F99F6780E870E060E0089581
:1057D0009FEF80EC089500240A9416161706180609
:1057E0000906089500240A941216130614060506E5
:1057F0000895092E0394000C11F4882352F0BB0F76
:1058000040F4BF2B11F460FF04C06F5F7F4F8F4FD8
:105810009F4F089557FD9058440F551F59F05F3F13
:1058200071F04795880F97FB991F61F09F3F79F0C2
:1058300087950895121613061406551FF2CF469544
:10584000F1DF08C0161617061806991FF1CF8695C6
:105850007105610508940895E894BB2766277727AA
:10586000CB0197F90895DC01CB01FC01F999FECF3A
:1058700006C0F2BDE1BDF89A319600B40D924150D8
:105880005040B8F70895DC01CB0103C02D910E9470
:105890004E2C41505040D0F70895262FF999FECF55
:1058A0001FBA92BD81BD20BD0FB6F894FA9AF99A3D
:1058B0000FBE01960895052E97FB1EF400940E94DA
:1058C000722C57FD07D00E94C42C07FC03D04EF465
:1058D0000C94722C50954095309521953F4F4F4F29
:1058E0005F4F089590958095709561957F4F8F4F8C
:1058F0009F4F08950E94E62CA59F900DB49F900D98
:10590000A49F800D911D11240895B7FF0C947A2C4B
:105910000E947A2C821B930B08952F923F924F92F4
:105920005F926F927F928F929F92AF92BF92CF922F
:10593000DF92EF92FF920F931F93CF93DF93CDB738
:10594000DEB7CA1BDB0B0FB6F894DEBF0FBECDBFB0
:1059500009942A88398848885F846E847D848C8481
:105960009B84AA84B984C884DF80EE80FD800C818A
:105970001B81AA81B981CE0FD11D0FB6F894DEBF6D
:105980000FBECDBFED010895A1E21A2EAA1BBB1BCD
:10599000FD010DC0AA1FBB1FEE1FFF1FA217B307FB
:1059A000E407F50720F0A21BB30BE40BF50B661F11
:1059B000771F881F991F1A9469F7609570958095D5
:1059C00090959B01AC01BD01CF010895A29FB0014C
:1059D000B39FC001A39F700D811D1124911DB29F23
:1059E000700D811D1124911D08955058BB27AA27C1
:1059F0000E940D2D0C94F92B0E94EB2B38F00E9485
:105A0000F22B20F039F49F3F19F426F40C94E82B84
:105A10000EF4E095E7FB0C94E22BE92F0E940A2C90
:105A200058F3BA17620773078407950720F079F4D3
:105A3000A6F50C942C2C0EF4E0950B2EBA2FA02D6D
:105A40000B01B90190010C01CA01A0011124FF272B
:105A5000591B99F0593F50F4503E68F11A16F04026
:105A6000A22F232F342F4427585FF3CF4695379525
:105A70002795A795F0405395C9F77EF41F16BA0BEA
:105A8000620B730B840BBAF09150A1F0FF0FBB1F98
:105A9000661F771F881FC2F70EC0BA0F621F731FE1
:105AA000841F48F4879577956795B795F7959E3F3E
:105AB00008F0B0CF9395880F08F09927EE0F9795CF
:105AC000879508950E94762D0C94F92B0E94F22B55
:105AD00058F00E94EB2B40F029F45F3F29F00C9422
:105AE000E22B51110C942D2C0C94E82B0E940A2CC3
:105AF00068F39923B1F3552391F3951B550BBB27FD
:105B0000AA2762177307840738F09F5F5F4F220F41
:105B1000331F441FAA1FA9F335D00E2E3AF0E0E838
:105B200032D091505040E695001CCAF72BD0FE2F82
:105B300029D0660F771F881FBB1F26173707480716
:105B4000AB07B0E809F0BB0B802DBF01FF279358CE
:105B50005F4F3AF09E3F510578F00C94E22B0C9485
:105B60002D2C5F3FE4F3983ED4F3869577956795A7
:105B7000B795F7959F5FC9F7880F911D9695879503
:105B800097F90895E1E0660F771F881FBB1F621722
:105B900073078407BA0720F0621B730B840BBA0BE0
:105BA000EE1F88F7E09508950E94DB2D6894B111EF
:105BB0000C942D2C08950E94122C88F09F5798F079
:105BC000B92F9927B751B0F0E1F0660F771F881F02
:105BD000991F1AF0BA95C9F714C0B13091F00E941C
:105BE0002C2CB1E008950C942C2C672F782F88274B
:105BF000B85F39F0B93FCCF3869577956795B39543
:105C0000D9F73EF490958095709561957F4F8F4FB1
:105C10009F4F08950E94512B08F48FEF0895DB01E8
:105C20008F939F930E947A2CBF91AF91A29F800D7A
:105C3000911DA39F900DB29F900D11240895991B63
:105C400079E004C0991F961708F0961B881F7A9573
:105C5000C9F780950895EE0FFF1F0590F491E02D90
:105C600009940F931F93CF93DF938230910510F423
:105C700082E090E0E0918108F091820820E030E03D
:105C8000A0E0B0E0309719F1408151810281138189
:105C900048175907C8F08417950769F4109731F031
:105CA00012960C93129713961C9327C000938108A9
:105CB0001093820822C02115310519F042175307AD
:105CC00018F49A01BD01EF01DF01F801DBCF2115C6
:105CD0003105F9F0281B390B2430310580F48A8115
:105CE0009B816115710521F0FB019383828304C0C0
:105CF0009093820880938108FE01329644C0FE0191
:105D0000E20FF31F81939193225031093983288345
:105D10003AC020917F0830918008232B41F42091D4
:105D20006101309162013093800820937F082091B7
:105D30005F01309160012115310541F42DB73EB767
:105D40004091630150916401241B350BE0917F0861
:105D5000F0918008E217F307A0F42E1B3F0B2817E1
:105D6000390778F0AC014E5F5F4F2417350748F0D4
:105D70004E0F5F1F5093800840937F08819391934B
:105D800002C0E0E0F0E0CF01DF91CF911F910F91D1
:105D90000895CF93DF93009709F481C0FC013297F7
:105DA00013821282A0918108B0918208109781F429
:105DB00020813181820F931F20917F0830918008CC
:105DC0002817390751F5F0938008E0937F0867C0E2
:105DD000ED0120E030E0CE17DF0740F44A815B811F
:105DE0009E0141155105F1F0EA01F5CFD383C2833D
:105DF00040815181840F951FC817D90759F48881B4
:105E00009981840F951F0296918380838A819B815B
:105E1000938382832115310529F4F0938208E0935E
:105E200081083DC0E901FB83EA8349915991C40F80
:105E3000D51FEC17FD0761F480819181840F951FB8
:105E40000296E90199838883828193819B838A8367
:105E5000E0E0F0E012968D919C911397009719F075
:105E6000FD01DC01F7CF8D919C9111979D012E5F73
:105E70003F4F820F931F20917F0830918008281791
:105E8000390769F4309729F410928208109281083A
:105E900002C013821282B0938008A0937F08DF9122
:105EA000CF910895A0E0B0E0E8E5FFE20C94912CDA
:105EB000EC01009721F4CB010E94312EB4C0FC010B
:105EC000E60FF71F9C0122503109E217F30708F48F
:105ED000A8C0D9010D911C91119706171707B0F0B2
:105EE0000530110508F49BC0C80104978617970771
:105EF00008F495C002501109061B170B019311936A
:105F00006D937C93CF010E94C92E89C05B01A01ABA
:105F1000B10A4C01800E911EA0918108B0918208B7
:105F2000612C712CE12CF12C109709F446C08D9155
:105F30009C911197A815B905B1F56C0142E0C40E0A
:105F4000D11CCA14DB0478F14C018A189B08640147
:105F500042E0C40ED11C1296BC9012971396AC91DD
:105F6000B5E0CB16D10440F0B282A3839182808247
:105F7000D9016D937C9309C00E5F1F4F800F911F55
:105F8000F90191838083EB2DFA2FE114F10431F0B4
:105F9000D7011396FC93EE93129741C0F0938208B9
:105FA000E09381083CC06816790608F43C017D0145
:105FB00012960D90BC91A02DB7CF80917F08909143
:105FC000800888169906E1F466167706C8F4809171
:105FD0005F0190916001009741F48DB79EB74091A9
:105FE000630150916401841B950BE817F907C8F40D
:105FF000F0938008E0937F08F901718360830FC0FC
:10600000CB010E94312E7C01009759F0A801BE01FE
:106010000E941D30CE010E94C92EC70104C0CE01CE
:1060200002C080E090E0CDB7DEB7EEE00C94AD2C7E
:1060300081E090E0F8940C94EF32FB01DC0102C0A7
:1060400001900D9241505040D8F70895FB01DC01BA
:1060500001900D920020E1F70895FB01DC01415011
:10606000504048F001900D920020C9F701C01D92E8
:1060700041505040E0F70895AEE0B0E0E2E4F0E3D4
:106080000C949B2C0D891E8986E08C831A830983CE
:106090008FEF9FE79E838D83AE01475E5F4F6F89D1
:1060A000788DCE0101960E945E30EF81F885E00F79
:1060B000F11F10822E96E4E00C94B72CABE0B0E018
:1060C000E4E6F0E30C948D2C6C017B018A01FC0169
:1060D00017821682838181FFCCC1CE0101963C01DB
:1060E000F6019381F70193FD859193FF81917F01E3
:1060F000882309F4BAC1853239F493FD859193FF61
:1061000081917F01853229F4B60190E00E945532D9
:10611000E7CF912C212C312CFFE1F315D8F08B32F5
:1061200079F038F4803279F08332A1F4232D2061A4
:106130001DC08D3261F0803369F4232D216016C0BB
:10614000832D8260382EE32DE4603E2E2AC0F32D8D
:10615000F8601DC037FC2DC020ED280F2A3040F01C
:106160008E32B9F436FC81C1232D2064322E19C041
:1061700036FE06C08AE0989E200D1124922E11C092
:10618000EAE02E9E200D1124222EF32DF0623F2EE8
:1061900008C08C3621F4832D8068382E02C08836E2
:1061A00041F4F70193FD859193FF81917F01811166
:1061B000B3CF982F9F7D9554933028F40C5F1F4FD9
:1061C0009FE399830DC0833631F0833771F08335B7
:1061D00009F059C021C0F801808189830E5F1F4FEB
:1061E00088248394912C530113C02801F2E04F0EB0
:1061F000511CF801A080B18036FE03C0692D70E00B
:1062000002C06FEF7FEFC5010E944A324C0182014C
:10621000F32DFF773F2E16C0280122E0420E511CBD
:10622000F801A080B18036FE03C0692D70E002C085
:106230006FEF7FEFC5010E943F324C01F32DF068F4
:106240003F2E820133FC1BC0822D90E088169906F8
:10625000B0F4B60180E290E00E9455322A94F4CF67
:10626000F50137FC859137FE81915F01B60190E021
:106270000E94553221102A9421E0821A910881143B
:10628000910471F7E8C0843611F0893641F5F801C0
:1062900037FE07C060817181828193810C5F1F4F3F
:1062A00008C060817181072E000C880B990B0E5F6E
:1062B0001F4FF32DFF763F2E97FF09C090958095D5
:1062C000709561957F4F8F4F9F4FF0683F2E2AE06A
:1062D00030E0A3010E949132882E861845C0853790
:1062E00031F4232D2F7EB22E2AE030E025C0932DED
:1062F000997FB92E8F36C1F018F4883579F0B5C082
:10630000803719F0883721F0B0C0E92FE061BE2E48
:10631000B4FE0DC0FB2DF460BF2E09C034FE0AC0D0
:10632000292F2660B22E06C028E030E005C020E10B
:1063300030E002C020E132E0F801B7FE07C0608122
:106340007181828193810C5F1F4F06C060817181D2
:1063500080E090E00E5F1F4FA3010E949132882ED3
:106360008618FB2DFF773F2E36FE0DC0232D2E7F86
:10637000A22E891458F434FE0BC032FC09C0832DC0
:106380008E7EA82E05C0B82CA32C03C0B82C01C04B
:10639000B92CA4FE0FC0FE01E80DF11D80818033F1
:1063A00021F49A2D997EA92E09C0A2FE06C0B394AD
:1063B000B39404C08A2D867809F0B394A3FC11C06D
:1063C000A0FE06C0B21488F4280C922C9B180EC0B4
:1063D000B21460F4B60180E290E00E945532B394AA
:1063E000F7CFB21418F42B1802C0982C212CA4FE5D
:1063F00010C0B60180E390E00E945532A2FE17C0A3
:10640000A1FC03C088E790E002C088E590E0B601F7
:106410000CC08A2D867859F0A1FE02C08BE201C023
:1064200080E2A7FC8DE2B60190E00E94553289140B
:1064300038F4B60180E390E00E9455329A94F7CF89
:106440008A94F301E80DF11D8081B60190E00E946D
:1064500055328110F5CF222009F442CEB60180E2F8
:1064600090E00E9455322A94F6CFF60186819781FA
:1064700002C08FEF9FEF2B96E2E10C94A92CFC0158
:106480000590615070400110D8F7809590958E0F5F
:106490009F1F0895FC016150704001900110D8F7D2
:1064A000809590958E0F9F1F08950F931F93CF9304
:1064B000DF93FB01238121FD03C08FEF9FEF2CC0F1
:1064C00022FF16C046815781248135814217530728
:1064D00044F4A081B1819D012F5F3F4F3183208320
:1064E0008C93268137812F5F3F4F3783268314C0DB
:1064F0008B01EC01FB010084F185E02D0995892BCE
:10650000E1F6D80116968D919C91179701961796F2
:106510009C938E931697CE01DF91CF911F910F918F
:106520000895FA01AA27283051F1203181F1E89429
:106530006F936E7F6E5F7F4F8F4F9F4FAF4FB1E076
:106540003ED0B4E03CD0670F781F891F9A1FA11D71
:10655000680F791F8A1F911DA11D6A0F711D811D72
:10656000911DA11D20D009F468943F912AE0269F37
:1065700011243019305D3193DEF6CF010895462F96
:106580004770405D4193B3E00FD0C9F7F6CF462F77
:106590004F70405D4A3318F0495D31FD40524193E0
:1065A00002D0A9F7EACFB4E0A6959795879577959D
:1065B0006795BA95C9F700976105710508959B0124
:1065C000AC010A2E06945795479537952795BA95AD
:1065D000C9F7620F731F841F951FA01D0895F894BB
:0265E000FFCFEB
:1065E2004D6F6269466C69676874204D6963726FAA
:1065F2000000000030393837363534333231004D3F
:106602006F6269466C69676874204D6963726F00D6
:106612000000000000000000000000000000000078
:10662200000000000000000000000000000000FF69
:10663200FFFFFF00E1000000000000010000000079
:106642000083088000000000010201000000020136
:10665200000001010001010001010101010000002F
:106662000000B4145C0D7C1443132D13EB12CA12F8
:10667200961275121F12DB11312E392E39000000CD
:106682007E306D79335B5F707F7B771F0D3D4F47A7
:1066920000000000000000000000000000000000F8
:1066A20000000000000000000000000080018025C2
:1066B2007E306D79335B5F707F7B000000090000E4
:1066C20000777F4E7E4F475F37307C000E00767E2C
:1066D200677E775B463E000000336D4E13780008FC
:1066E200007D1F0D3D4F477B373038000600151DDA
:1066F2006773055B0F1C000000276D4E00780000D9
:1067020000C18081000000000000001411F90B7923
:1067120014781400FF0100010000FFFF00000100D7
:1067220001FF00000040001400540000000000239C
:106732000C900C160D390C440C3E0D1A0D00000085
:1067420000C31FF90B791478140000000049141CCF
:10675200147914F01314140014F113534E2D253030
:1067620033782D00253033780030002E003A002097
:0C67720000427574746F6E000D0A000088
:00000001FF
