:100000000C948E000C94B6000C94B6000C94B600C0
:100010000C94B6000C94B6000C94B6000C94B60088
:100020000C94B6000C94B6000C94B6000C94B10578
:100030000C94B6000C94B6000C94B6000C94B60068
:100040000C94461F0C94B6000C9434020C940E02CF
:100050000C94B6000C94B6000C94B6000C94B60048
:100060000C9437080C94B600A202A802AE02B402A7
:10007000BA02C002C602010408040F0416041D04DB
:100080003404240434042B04B911951300123612DD
:10009000AE124013E813B613F3124F4B004F4B0050
:1000A0004F4B006E2F610000000000240027002A43
:1000B0000000000000250028002B000000000023A5
:1000C00000260029000404040404040404020202BB
:1000D0000202020303030303030102040810204089
:1000E0008001020408102001020408102000000012
:1000F00008000201000003040700000000000000E7
:10010000002000526F636B732100200020004D6FB0
:100110006269666C696768740000462411241FBE1A
:10012000CFEFD8E0DEBFCDBF12E0A0E0B1E0E8EC59
:10013000FCE502C005900D92A838B107D9F727E079
:10014000A8E8B2E001C01D92A438B207E1F710E0C0
:10015000CEE8D0E004C02197FE010E949E29CD3850
:10016000D107C9F70E94901F0C94622E0C940000D6
:10017000CF92DF92EF92FF920F931F93CF93DF9373
:100180006C017A018B01C0E0D0E0CE15DF0581F073
:10019000D8016D918D01D601ED91FC910190F08116
:1001A000E02DC6010995892B11F02196EECF7E0135
:1001B000C701DF91CF911F910F91FF90EF90DF90DA
:1001C000CF900895FC01538D448D252F30E0842F6E
:1001D00090E0821B930B541710F0CF96089501976F
:1001E0000895FC01918D828D981761F0828DDF0159
:1001F000A80FB11D5D968C91928D9F5F9F73928F1A
:1002000090E008958FEF9FEF08950E948B2B86E07A
:1002100096E00E94740221E0892B09F420E0822FED
:100220000895EF92FF920F931F93CF93DF93EC010A
:1002300081E0888F9B8D8C8D981305C0E889F989A2
:10024000808185FD26C0F62E0B8D10E00F5F1F4FBD
:100250000F731127E02E8C8DE8120CC00FB607FC2F
:10026000FACFE889F989808185FFF5CFCE010E9418
:10027000F504F1CF8B8DFE01E80FF11DE35AFF4F1E
:10028000F0829FB7F8940B8FEA89FB8980818062A6
:100290000AC09FB7F894EE89FF896083E889F989DD
:1002A00080818370806480839FBF81E090E0DF91D4
:1002B000CF911F910F91FF90EF900895CF93DF930F
:1002C000EC01888D8823C9F0EA89FB89808185FD4E
:1002D00005C0A889B9898C9186FD0FC00FB607FCAF
:1002E000F5CF808185FFF2CFA889B9898C9185FFF0
:1002F000EDCFCE010E94F504E7CFDF91CF910895B5
:10030000EF92FF920F931F93CF93DF93EC0119822B
:1003100018821B821A821D821C8261157105B9F137
:100320007B01FB0101900020E9F731978F01061B4B
:10033000170BB8016F5F7F4F80E090E00E94C52AE5
:10034000009759F0998388831B830A832C813D8110
:10035000232B81F4FC0110820DC0888199810097C4
:1003600011F00E943C2A198218821D821C821B8275
:100370001A820DC01D830C83B70188819981DF919A
:10038000CF911F910F91FF90EF900C94992BDF91DB
:10039000CF911F910F91FF90EF900895DC01ED91A7
:1003A000FC910190F081E02D0994EF92FF920F9360
:1003B0001F93CF93DF938C017B01C0E0D0E0F70166
:1003C000EC0FFD1F6491662361F0D801ED91FC9163
:1003D0000190F081E02DC8010995892B11F021963B
:1003E000EECFCE01DF91CF911F910F91FF90EF9053
:1003F00008956115710579F0FB0101900020E9F77E
:100400003197AF01461B570BDC01ED91FC91028047
:10041000F381E02D099480E090E008951F920F92FF
:100420000FB60F9211242F933F934F935F936F93C7
:100430007F938F939F93AF93BF93EF93FF9386E048
:1004400096E00E94F504FF91EF91BF91AF919F91CB
:100450008F917F916F915F914F913F912F910F906D
:100460000FBE0F901F9018951F920F920FB60F920C
:1004700011242F938F939F93EF93FF93E091160690
:10048000F09117068081E0911C06F0911D0682FD17
:1004900012C0908180911F068F5F8F73209120067C
:1004A000821751F0E0911F06F0E0EA5FF94F958F57
:1004B00080931F0601C08081FF91EF919F918F91E2
:1004C0002F910F900FBE0F901F901895FC01918DEA
:1004D000828D981731F0828DE80FF11D858D90E0A7
:1004E00008958FEF9FEF0895FC01918D228D892F44
:1004F00090E0805C9F4F821B91098F73992708952C
:1005000080E090E0892B29F00E94070181110C9472
:1005100000000895CF93DF9347705527662777270C
:10052000FA013197EC01A881B981E730F10520F497
:10053000EC5CFF4F0C949E291496ED91FC9115975D
:1005400061E029C01496ED91FC91159765E023C0F8
:100550001496ED91FC91159764E01DC01496ED91F1
:10056000FC91159766E017C01496ED91FC911597D4
:1005700062E011C01496ED91FC9115976AE00BC0F2
:100580001496ED91FC91159768E005C01496ED91D5
:10059000FC91159769E0DF91CF910994CF93DF9398
:1005A000EC01CB01BA0126E030E040E050E00E94CF
:1005B000CE27623071058105910559F18CF46115E2
:1005C000710581059105F1F0613071058105910595
:1005D000C1F5E881F9810480F581E02D65E02DC049
:1005E000643071058105910511F1D4F06530710514
:1005F0008105910531F5E881F9810480F581E02DCF
:1006000066E01BC0E881F9810480F581E02D64E09B
:1006100014C0E881F9810480F581E02D61E00DC00E
:10062000E881F9810480F581E02D63E006C0E8816E
:10063000F9810480F581E02D62E0CE01DF91CF9158
:100640000994DF91CF910895437055276627772746
:10065000DC01ED91FC910480F581E02D42305105E3
:100660006105710571F0433051056105710559F05F
:10067000413051056105710511F065E005C066E086
:1006800003C06AE001C069E00994CF93DF93EC01F5
:10069000CB01BA0123E030E040E050E00E94CE27D9
:1006A000613071058105910581F062307105810528
:1006B000910591F0672B682B692BC1F4E881F981D2
:1006C0000480F581E02D64E00DC0E881F9810480AB
:1006D000F581E02D61E006C0E881F9810480F581B3
:1006E000E02D62E0CE01DF91CF910994DF91CF91AF
:1006F00008954370552766277727DC01ED91FC911B
:100700000480F581E02D423051056105710571F0DD
:10071000433051056105710559F0413051056105BE
:10072000710511F062E005C063E003C061E001C043
:1007300060E009940F931F93CF93DF93EC01E8815E
:10074000F9810480F581E02D8C010D5B1F4FD801EC
:100750008C91811102C060E001C062E0CE01099578
:10076000E881F9810480F581E02DD8018C91811117
:1007700002C061E001C063E0CE0109958BA59CA594
:100780008230910538F0880F991F880F991F0597BF
:100790000197F1F7E881F9810480F581E02DD80116
:1007A0008C91811102C060E001C062E0CE01DF9156
:1007B000CF911F910F910994CF93DF93EC0120E02B
:1007C00030E0A9016B897C898D899E890E947D29F1
:1007D00018161CF4EFA5F8A902C0E9A9FAA9DF913F
:1007E000CF9109940F931F93DC011296EC910E2F79
:1007F00010E009301105C0F5F801E55CFF4F0C94DD
:100800009E29DC01ED91FC910084F185E02D29C049
:10081000DC01ED91FC910284F385E02D22C0DC0126
:10082000ED91FC910484F585E02D1BC0DC01ED9178
:10083000FC910684F785E02D14C0DC01ED91FC915C
:100840000088F189E02D0DC0DC01ED91FC9102885A
:10085000F389E02D06C0DC01ED91FC910488F58957
:10086000E02D1F910F9109941F910F910895CF933F
:10087000DF9381112DC02091B90230E0A5EBB2E0E9
:1008800080E090E0821793071CF5ED91FD91EF0158
:10089000CA5BDF4F4A81641319C081818823C1F08C
:1008A000158616861786108A118A128A138A148A68
:1008B00015AA16AA17AA10AE15A216A217A210A65C
:1008C000158A168A178A108E118202C00196DACF15
:1008D000DF91CF910895CF92DF92EF92FF920F9325
:1008E0001F93CF93DF93EC019A81943041F09830BD
:1008F00031F0933031F0963021F012E003C014E073
:1009000001C013E02396E12CF12CC62ED12C01E07E
:10091000C6010E2C02C0959587950A94E2F76C816A
:1009200080FD602789910E94F8108FEFE81AF80A7D
:10093000E11670F3DF91CF911F910F91FF90EF902F
:10094000DF90CF900895CF93DF93FC012281222383
:1009500059F1EC0161E083810E94271161E08C81F3
:100960000E9427118A81843011F0883039F461E0C7
:100970008D810E94271161E08E8106C0833011F0C5
:10098000863021F461E08D810E9427118EA58F3F72
:1009900059F061E00E9427116DA581E068278EA5BE
:1009A000DF91CF910C94F810DF91CF910895CF9300
:1009B000DF93FC0122812223A9F0EC010190F08158
:1009C000E02D0480F581E02D60E009958EA58F3F34
:1009D00049F061E00E9427116DA58EA5DF91CF91AE
:1009E0000C94F810DF91CF910895FC01848DDF0104
:1009F000A80FB11DA35ABF4F2C91848D90E0019692
:100A00008F739927848FA689B7892C93A089B18980
:100A10008C91837080648C93938D848D981306C021
:100A20000288F389E02D80818F7D80830895CF93A4
:100A3000FC01C48121E02093BA02C09322031092EA
:100A40004D0410924C048385682B87E694E00E9445
:100A5000E80990914C04913208F045C080914B0414
:100A60008111FCCF82E080934B0481E080934A04A3
:100A70008FEF809321031092200390931F03ABEB21
:100A8000B2E0EFEFF2E080E0981721F02D91219392
:100A90008F5FFACF1092FE028091FE02CC0FC82B1E
:100AA000C093FE0280914904813061F410924904A0
:100AB0008091FE028093BB008091BC0083FDF8CF43
:100AC00085EC01C085EE8093BC0080914B048230A0
:100AD000E1F3809121038F3F31F080912103803237
:100AE00011F08091210310924D0410924C04109249
:100AF000BA02CF9108950F931F93CF938C01C62F05
:100B00000E9417056C2F6460C8010E9417056C2FA6
:100B10006B7FC8010E94170583EC90E00197F1F705
:100B2000CF911F910F9108950F931F93CF93DF9350
:100B30008C01C62FD42F607F642B0E947B0580E13F
:100B4000C89FB00111246D2BC801DF91CF911F9177
:100B50000F910C947B0541E00E94940581E090E0A8
:100B600008951F920F920FB60F9211242F933F9367
:100B70004F935F936F937F938F939F93AF93BF93A5
:100B8000EF93FF938091FD0287FF05C010928500CF
:100B9000109284001BC02091FD02022E000C330B2A
:100BA0008091990490E02817390784F48091FD0220
:100BB000082E000C990BFC01EE0FFF1F8E0F9F1FDC
:100BC000FC01EB58FB4F808186FD15C08091FD0232
:100BD0008F5F8093FD022091FD02022E000C330BEB
:100BE0008091990490E028173907C4F48091FD02A0
:100BF0008C3064F113C08091FD02082E000C990B1B
:100C0000FC01EE0FFF1F8E0F9F1FFC01EB58FB4FE7
:100C1000808160E08F730E94F810D8CF80918400AB
:100C200090918500049680349C4918F480E49CE9F6
:100C300005C080918400909185000496909389006E
:100C4000809388008FEF8093FD023BC02091840049
:100C5000309185008091FD02082E000C990BFC015B
:100C6000EE0FFF1F8E0F9F1FFC01EB58FB4F818182
:100C70009281820F931F90938900809388008091C6
:100C8000FD02082E000C990BFC01EE0FFF1F8E0FCA
:100C90009F1FFC01EB58FB4F808186FF12C08091A3
:100CA000FD02082E000C990BFC01EE0FFF1F8E0FAA
:100CB0009F1FFC01EB58FB4F808161E08F730E9406
:100CC000F810FF91EF91BF91AF919F918F917F911C
:100CD0006F915F914F913F912F910F900FBE0F90A9
:100CE0001F9018954F925F926F927F928F929F9272
:100CF000AF92BF92CF92DF92EF92FF920F931F932A
:100D0000CF93DF93EC018F849888A988BA888B856C
:100D10009C85AD85BE85881A990AAA0ABB0A6B898B
:100D20007C898D899E899B01AC010E94E8266B011C
:100D30007C016B8D7C8D8D8D9E8D9B01AC010E9405
:100D400069289B01AC01C701B6010E94D5280E9409
:100D5000472981149104A104B10499F4623071050A
:100D6000810591050CF079C01BA21CA21DA21EA238
:100D70001B8A1C8A1D8A1E8A1BAA1CAA1DAA1EAABF
:100D8000F4C00BA91CA92DA93EA9FE01ED5BFF4FE4
:100D9000181419041A041B04FCF410161106120688
:100DA00013064CF4681579058A059B054CF52081DE
:100DB000211153C025C0011511052105310509F484
:100DC0004CC0681579058A059B050CF046C08081EA
:100DD000882309F442C036C0101611061206130605
:100DE000ECF4002711279801081919092A093B0971
:100DF00060177107820793071CF42081222369F191
:100E00009B01AC0188279927DC01821B930BA40B63
:100E1000B50B8BAB9CABADABBEAB1FC001151105C9
:100E200021053105D1F0CC24DD247601C818D9087C
:100E3000EA08FB086C157D058E059F0574F480811A
:100E400081110BC030952095109501951F4F2F4FA4
:100E50003F4F0BAB1CAB2DAB3EABCBA8DCA8EDA83A
:100E6000FEA88E010D5B1F4FC114D104E104F104F3
:100E700091F48FA998ADA9ADBAAD8BAF9CAFADAFD2
:100E8000BEAF81E0181419041A041B040CF080E0B2
:100E9000F80180833EC08BAC9CACADACBEACA50170
:100EA0009401C501B4010E9469282B013C01C701CE
:100EB000B6010E94892620E030E040E850E40E941C
:100EC000E82620E030E040E85FE30E9469289B01CB
:100ED000AC01C301B2010E94D5289B01AC01C50140
:100EE000B4010E9468282B013C01FE01FF9680801E
:100EF0009180A280B3809401A5010E947D291816DB
:100F000014F442015301C401D5018BAF9CAFADAFC6
:100F1000BEAFFFEFCF1ADF0AEF0AFF0ACBAADCAAA7
:100F2000EDAAFEAACBACDCACEDACFEACC701B601C1
:100F30000E944E296BA37CA38DA39EA3A7019601BB
:100F400060E074E284E799E40E94D5286B8B7C8B87
:100F50008D8B9E8BF8012081211107C0DC01CB0114
:100F6000B0588B8B9C8BAD8BBE8BDF91CF911F913B
:100F70000F91FF90EF90DF90CF90BF90AF909F9038
:100F80008F907F906F905F904F900895DC01139643
:100F90008C91139781110CC01896ED91FC911997C3
:100FA000309731F04D915C91119712966C910CC075
:100FB0001A96ED91FC911B97309739F04D915C9109
:100FC000119712966C9181E009940895CF92DF9267
:100FD000EF92FF92CF93DF93EC010E943A1F6B01D7
:100FE0007C018C819D81AE81BF81A7019601281B68
:100FF000390B4A0B5B0B2B30310541055105C0F015
:101000008A810E94CF10CC82DD82EE82FF829B819A
:10101000891771F091E0811101C090E09B83CE01AE
:10102000DF91CF91FF90EF90DF90CF900C94C607A7
:10103000DF91CF91FF90EF90DF90CF900895CF9305
:10104000DF93EC016A835983488381E08B830E949C
:101050003A1F6C837D838E839F8360E08A810E9428
:10106000271161E08A81DF91CF910C94F8101F92D3
:101070000F920FB60F9211242F933F934F935F93CC
:101080006F937F938F939F93AF93BF93EF93FF9350
:101090008091B900887F803609F49CC068F5883259
:1010A00009F45BC090F4803109F454C038F488230B
:1010B00009F4F6C0883009F44DC0F6C0883109F44F
:1010C0004CC0803209F45DC0EFC0803409F468C0C0
:1010D00048F4803309F455C0883309F0E5C08093A3
:1010E0002103D8C0803509F44FC0883509F45DC0AC
:1010F000883409F0D9C0D6C0883909F4C7C0A8F42B
:10110000883709F467C038F4883609F463C080373B
:1011100009F460C0C9C0883809F4B8C0803909F43E
:101120005FC0803809F0C0C05BC0803B09F486C056
:1011300038F4803A09F466C0883A09F47FC0B4C034
:10114000803C09F4A7C0883C09F4A4C0883B09F49A
:101150008AC0AAC08091FE0210C0909120038091A5
:101160001F03981770F5E091200381E08E0F8093A4
:101170002003F0E0E150FD4F80818093BB0085ECBF
:1011800086C0809321038EC0E091200381E08E0F02
:10119000809320038091BB00F0E0E150FD4F8083FD
:1011A0009091200380911F036EC0E091200381E0A5
:1011B0008E0F809320038091BB00F0E0E150FD4F43
:1011C000808380914A0481116DC081E0809349043D
:1011D00084EA61C083E080934B041092FC02CFCF7D
:1011E0008091FC02803208F051C0E091FC0281E065
:1011F0008E0F8093FC028091BB00F0E0E452FD4F23
:101200008083BDCF85EC8093BC0010924B0480910D
:10121000FC02803230F4E091FC02F0E0E452FD4F39
:1012200010826091FC0270E0E0914504F091460468
:101230008CED92E009951092FC0236C084E0809318
:101240004B041092DB021092B402E0914704F0913B
:10125000480409958091B402811105C081E0809312
:10126000B40210929402E091DB0281E08E0F809331
:10127000DB02F0E0EC56FD4F80818093BB00909143
:10128000DB028091B402981708F479CF85E8809347
:10129000BC000AC085EC8093BC0010924B0404C0D3
:1012A000109221030E94C70CFF91EF91BF91AF9163
:1012B0009F918F917F916F915F914F913F912F916E
:1012C0000F900FBE0F901F9018954091B402262FDB
:1012D00030E0240F311D21323105DCF420914B0424
:1012E0002430C9F4FC0180E090E0861758F4309176
:1012F000B4022191DC01AC56BD4FA30FB11D2C935C
:101300000196F3CF8091B402680F6093B40280E03D
:10131000089581E0089582E008950895089508955C
:10132000E0914F0480914E04E81730F4F0E0EB5D5B
:10133000FB4F808190E008958FEF9FEF089590918B
:101340004F0480914E04981750F4E92FF0E0EB5DC4
:10135000FB4F208130E09F5F90934F0402C02FEF3E
:101360003FEFC901089580914E0490E020914F0411
:10137000821B91090895CF92DF92EF92FF920F9313
:101380001F93CF93DF937C01CB018A012091BA0296
:10139000222389F0EB016B01C40ED51ECC15DD05AF
:1013A00069F06991D701ED91FC910190F081E02DF8
:1013B000C7010995F3CF642F0E946509C801DF9129
:1013C000CF911F910F91FF90EF90DF90CF900895F4
:1013D000CF93DF931F92CDB7DEB769832091BA0216
:1013E0002223D1F020914C04203240F021E030E063
:1013F000FC013383228380E090E015C080914D048E
:10140000E82FF0E0E554FD4F998190838F5F809342
:101410004D0480934C0405C061E0CE0101960E940A
:10142000650981E090E00F90DF91CF9108950895D4
:1014300080E090E008950F931F93CF93DF93C6E968
:10144000D5E000E010E08091620490E008171907F1
:1014500039F0CE010E94C6070F5F1F4F2C96F3CFC5
:10146000DF91CF911F910F9108950E943A1F6093D1
:1014700088027093890280938A0290938B028AE09B
:1014800090E00E94711D85E293E00E94C81D0C94BB
:10149000861D0E943A1F6093880270938902809390
:1014A0008A0290938B028AE090E00E94711D80E096
:1014B00091E00E94C81D8FE191E00E94C81D84E167
:1014C00091E00E94C81D89E691E00E94C81D0C941D
:1014D000861D81E00E9492188AE090E00E94711DB2
:1014E00084E191E00E94C81D0C94861D0E94CF1CCF
:1014F0002091900230E08217930734F5880F991FEE
:10150000FC01E457FD4F0190F081E02D1586168611
:101510001786108A118A128A138A148A15AA16AAA3
:1015200017AA10AE15A216A217A210A6158A168A1F
:10153000178A108E0E943A1F609388027093890266
:1015400080938A0290938B0208958F929F92AF921C
:10155000BF92CF92DF92FF920F931F93CF93DF93AF
:10156000CDB7DEB765970FB6F894DEBF0FBECDBF1F
:101570000E94CF1C5C010E94E31C6C0186E08A9DE6
:1015800080018B9D100D1124D801A656BB4F1296D9
:101590008C9112978823A9F11A8219829E012D5FDE
:1015A0003F4F83E1F90111928A95E9F7F12C8D0102
:1015B0004D01F5E08F0E911C5D0184E0A80EB11C79
:1015C000F40180818F15E9F06F2DF8018081918100
:1015D0000E942B1EF5018081482F50E0B6018F9D9F
:1015E000600D711D1124CE0101960E94902BBE0149
:1015F0006F5F7F4FF801808191810E94F901F39420
:10160000DFCF8091A306811109C085E090E00E94A0
:10161000711DC6010E94C81D0E94861D0E943A1FAE
:10162000609388027093890280938A0290938B0260
:1016300065960FB6F894DEBF0FBECDBFDF91CF9198
:101640001F910F91FF90DF90CF90BF90AF909F9030
:101650008F9008954F925F926F927F928F929F9298
:10166000AF92BF92CF92DF92EF92FF920F931F93B0
:10167000CF93DF930E94CF1C8C010E94CF1CBC0132
:101680008091510490E0081719070CF0C4C08BE159
:10169000809FE001819FD00D1124CA55DB4FCD8082
:1016A000DE800D2C000CEE08FF0889809A80092C42
:1016B000000CAA08BB082F813885C901330FAA0B7B
:1016C000BB0B9C01AD012C193D094E095F09CB01F3
:1016D000770FAA0BBB0BBC01CD01681979098A09E8
:1016E0009B090E9482292B813C812901330F6608C6
:1016F0007708A3019201281939094A095B090E9458
:10170000CE27C20ED31EE41EF51E0D2C000CEE08D3
:10171000FF088D859E85AF85B8898C159D05AE0522
:10172000BF0509F46EC0CD86DE86EF86F88A89850E
:10173000811167C08A858C3008F059C0F88061E05B
:101740008F2D0E9427118A85E82FF0E09F01220F3C
:10175000331FE20FF31FEB58FB4F9F2D9F73208128
:10176000207CF22EF92AF0821B861C866CE00E94F7
:1017700092299CE0899FB001112440E050E09B0138
:10178000240F351FF901EE0FFF1F2E0F3F1FF90128
:10179000EB58FB4F908196FD16C04F5F5F4F4C306A
:1017A000510569F781110FC01092800082E080938B
:1017B00081001092850010928400B19A80916F0090
:1017C000826080936F008BE1809FF001819FF00D1C
:1017D0001124EA55FB4FE285F0E0CF01880F991FF5
:1017E000E80FF91FEB58FB4F8081806480838BE109
:1017F000809FF001819FF00D1124EA55FB4F81E09D
:1018000081870E943A1F60938802709389028093B7
:101810008A0290938B02DF91CF911F910F91FF90DD
:10182000EF90DF90CF90BF90AF909F908F907F9080
:101830006F905F904F9008950E94CF1C209190026E
:1018400030E0821793079CF4880F991FFC01E4573E
:10185000FD4F808191810E94581C0E943A1F609325
:1018600088027093890280938A0290938B02089574
:101870000F931F93CF93DF930E94CF1CEC010E9424
:101880007A1C882361F081E080932D0780932E07D6
:1018900080912F07909130070E94172605C0109263
:1018A0002E0760E070E0CB012091900230E0C2177B
:1018B000D307A4F5CC0FDD1FC457DD4FE881F981B4
:1018C0001182DF01AE5ABF4F0D911D912D913C91B8
:1018D00013976017710782079307B1F06D937D939B
:1018E0008D939C93139701891289238934896017FA
:1018F00071078207930741F0618B728B838B948B06
:10190000CF0102960E9472060E943A1F60938802DD
:101910007093890280938A0290938B02DF91CF911A
:101920001F910F910895CF930E94CF1CC82F0E9442
:10193000CF1CBC018C2F0E947C1E0E943A1F60931A
:1019400088027093890280938A0290938B02CF91D0
:1019500008950E943A1F60938802709389028093D1
:101960008A0290938B0263EA70E085E090E00C9429
:10197000A41D40E051E065E273E08BE390E00E943B
:10198000051E6DE970E08FE090E00C94A41D85EDDC
:101990008093BC008091BC0084FDFCCF10924B046E
:1019A00008958F929F92AF92BF92CF92DF92EF9263
:1019B000FF920F931F93CF93DF93EC01B62E0E94FB
:1019C0003A1F098D1A8D2B8D3C8D6B017C01C01A3D
:1019D000D10AE20AF30A97018601CD8CDE8C0D2C28
:1019E000000CEE08FF080C151D052E053F05C4F080
:1019F000288DFE0134E0239FE00DF11D112410829B
:101A00001182128213822F5F288F648775878687E1
:101A10009787698F7A8F8B8F9C8F233008F0188E71
:101A2000B1101DC0288DFE0144E0249FE00DF11D82
:101A30001124C484D584E684F7849B01AC012C195D
:101A40003D094E095F0969017A0112161306140651
:101A50001506D4F0C12CD12C7601C39415C0FE011B
:101A60009E01245F3F4FC080D180E280F3804FEF22
:101A7000C41AD40AE40AF40AC192D192E192F19212
:101A80002E173F0781F7CECF6081718182819381CC
:101A90000E94892620E030E04AE754E40E94E826CC
:101AA0004B015C01C701B6010E9489269B01AC0174
:101AB000C501B4010E94D5286F8F78A389A39AA38A
:101AC000DF91CF911F910F91FF90EF90DF90CF901A
:101AD000BF90AF909F908F9008958F929F92AF92FA
:101AE000BF92CF92DF92EF92FF920F931F93CF930B
:101AF000DF93EC0188810E94CF10BB24B394892B23
:101B000009F4B12C0E943A1F2A812983CB80DC8002
:101B1000ED80FE800F811885B216B9F09B01AC01F3
:101B20002C193D094E095F0969017A01012E000C4B
:101B3000220B330BC016D106E206F3060CF0BA8274
:101B40006B837C838D839E831CC0012E000C220B33
:101B5000330B4B015C018C189D08AE08BF08801642
:101B60009106A206B3066CF0DC01CB01801B910B41
:101B7000A20BB30B0197A109B1098B839C83AD83A1
:101B8000BE83DF91CF911F910F91FF90EF90DF9077
:101B9000CF90BF90AF909F908F9008952F923F92DB
:101BA0004F925F926F927F928F929F92AF92BF926D
:101BB000CF92DF92EF92FF920F931F93CF93DF9319
:101BC00000D0CDB7DEB78C0149832A83660F771F1B
:101BD000F801EA5AFF4FE080F180EE0CFF1CF8019B
:101BE000CF01801B910B8E159F0514F41192F8CF35
:101BF0008981F801E60FF71F81838A81808348017C
:101C000084E5880E911C60E0F40180810E94F81048
:101C10002801F2E54F0E511C380180E5680E711C59
:101C20001E141F043CF5E1E0EE1AF108F801EE0D78
:101C3000FF1DA080F2013080F301208087E0C82ED4
:101C4000D12CB12CB5010C2C02C0759567950A9466
:101C5000E2F76170822D0E94F81061E0832D0E94EE
:101C6000F81060E0832D0E94F810F1E0CF1AD1083F
:101C700048F7D6CF61E0F40180810F900F90DF919B
:101C8000CF911F910F91FF90EF90DF90CF90BF9079
:101C9000AF909F908F907F906F905F904F903F900C
:101CA0002F900C94F810CF92DF92EF92FF921F9337
:101CB000CF93DF937C016B01EB0183E0CC0FDD1F41
:101CC0008A95E1F76096CE0DDF1D11E0199220E0B4
:101CD000412FB601C7010E94CE0D1F5F1930B1F729
:101CE000DF91CF911F91FF90EF90DF90CF900895FB
:101CF0000F931F93CF93DF930E94CF1CEC010E94A0
:101D0000CF1C8C010E94CF1C282FFE01EE0FFF1F5D
:101D1000EE0FFF1FEE56FA4F8281882391F08381E8
:101D2000081778F4B801772780819181FC01EA5A7D
:101D3000FF4F40815181641775071CF44AE00E94EF
:101D4000CE0D0E943A1F609388027093890280939F
:101D50008A0290938B02DF91CF911F910F9108958A
:101D60000C94780E77FD10C0FC01EA5AFF4F2081D9
:101D700031816217730744F4442311F020E001C05D
:101D800021E04CE00C94CE0D089581E08093920206
:101D900060EA70E081E190E00C94A41DFF920F9343
:101DA0001F93CF93DF9381E00E9486181092620404
:101DB00088E00E9486181092910283E00E948618A3
:101DC0001092530484E00E94861800E010E0C09155
:101DD0005204D0E0C017D10789F0CC0FDD1FCC0F23
:101DE000DD1FCE56DA4F8A81882329F088819981B8
:101DF0000E943C2A1A820F5F1F4FE9CF10925204B3
:101E00008091510420E030E0482F50E06BE1869F44
:101E1000C00111248A559B4FDC011996EC012A96CA
:101E20004217530799F06C91662369F0E881F0E05E
:101E3000BF01660F771FE60FF71FEB58FB4F60815E
:101E40006F7B60831C922F5F3F4FEACF86E00E943A
:101E5000861810925104C0E0D0E08091900290E08A
:101E60008C179D0759F0880F991FFC01E457FD4F0F
:101E7000808191810E943C2A2196EFCF89E00E94C7
:101E800086181092900200E010E086E0F82E809113
:101E9000500490E08017910791F0F89EE001F99EC0
:101EA000D00D1124C656DB4F8A81882329F0888102
:101EB00099810E943C2A1A820F5F1F4FE8CF10922F
:101EC0005004109224031092230310929202DF9187
:101ED000CF911F910F91FF9008950E94CE0E6AE955
:101EE00070E085E090E00C94A41DCF93DF93CDB714
:101EF000DEB728970FB6F894DEBF0FBECDBF0E94A5
:101F0000E31CBC01CE0101960E94800140E350E039
:101F10006FE171E0CE0101960E94E31D83E290E043
:101F200098878F8341E050E0BE01695F7F4F80E07A
:101F300090E00E94051E4FE250E06FE171E081E009
:101F400090E00E94051E85E090E00E94711D8FE1E7
:101F500091E00E94C81D0E94861D89819A810E947D
:101F60003C2A28960FB6F894DEBF0FBECDBFDF9196
:101F7000CF9108956F927F928F929F92AF92BF926E
:101F8000CF92DF92EF92FF920F931F93CF93DF9345
:101F900000D000D000D0CDB7DEB70E94CF1C8C019E
:101FA0000E94CF1C7C010E94E31C6C010E94CF1C8C
:101FB0004C010E94CF1C5C01000F111F000F111F6C
:101FC0000E561A4FD80112968C91882309F459C0E5
:101FD000B601CE0101960E948001FF24370183E003
:101FE000660C771C8A95E1F7D12C48E0BB24992434
:101FF000CC24CA94C40E6C2D70E0C5010C2C02C018
:10200000959587950A94E2F780FF34C08D2D90E076
:102010002D813E818217930750F429813A81211541
:10202000310529F0F901E80FF91FE08101C0E0E076
:10203000D8018D919C91DC01AA5ABF4F2D913C9102
:10204000E216F306B4F4F0E0EF58FE4F2081F401FD
:102050000C2C02C0F595E7950A94E2F7E0FD2068A4
:10206000680F791FFB01E60DF71D208BB7010E9459
:10207000CE0DD3944C2DC110BBCF89819A810E9483
:102080003C2A0E943A1F60938802709389028093D1
:102090008A0290938B0226960FB6F894DEBF0FBE8D
:1020A000CDBFDF91CF911F910F91FF90EF90DF9007
:1020B000CF90BF90AF909F908F907F906F9008953A
:1020C000CF93DF9300D000D000D0CDB7DEB765E26C
:1020D00073E0CE0101960E948001CE0101960E941C
:1020E000631189819A810E943C2A0E94C50E26961E
:1020F0000FB6F894DEBF0FBECDBFDF91CF9108952C
:10210000833081F028F4813099F08230A1F0089575
:102110008730A9F08830B9F08430D1F48091800004
:102120008F7D03C0809180008F7780938000089519
:1021300084B58F7702C084B58F7D84BD089580916A
:10214000B0008F7703C08091B0008F7D8093B00086
:102150000895CF92DF92EF92FF920F931F93CF9348
:10216000DF936C017B018A01C0E0D0E0C017D1078A
:1021700060F4B6016C0F7D1F41E050E0C7018C0F89
:102180009D1F0E94A6272196F1CFC801DF91CF9114
:102190001F910F91FF90EF90DF90CF900895CF9314
:1021A000DF93282F30E0F901E351FF4F8491F901CB
:1021B000E752FF4FD491F901EB53FF4FC491CC2369
:1021C00091F081110E948010EC2FF0E0EE0FFF1FC4
:1021D000E554FF4FA591B491EC91ED2381E090E09F
:1021E00021F480E002C080E090E0DF91CF9108957B
:1021F0001F93CF93DF93282F30E0F901E351FF4F76
:102200008491F901E752FF4FD491F901EB53FF4F4D
:10221000C491CC23C1F0162F81110E948010EC2FA5
:10222000F0E0EE0FFF1FEF54FF4FA591B4919FB761
:10223000F894111104C08C91D095D82302C0EC9170
:10224000DE2BDC939FBFDF91CF911F910895CF9339
:10225000DF9390E0FC01E752FF4F2491FC01EB5328
:10226000FF4F8491882361F190E0880F991FFC0152
:10227000E955FF4FC591D491FC01EF54FF4FA59153
:10228000B491611109C09FB7F89488812095822389
:102290008883EC912E230BC0623061F49FB7F894D1
:1022A0008881322F309583238883EC912E2B2C93B9
:1022B0009FBF06C08FB7F894E8812E2B28838FBF6D
:1022C000DF91CF9108952F923F924F925F926F923C
:1022D0007F928F929F92AF92BF92CF92DF92EF92B6
:1022E000FF920F931F93CF93DF93CDB7DEB7C75104
:1022F000D1400FB6F894DEBF0FBECDBF1A8219824F
:10230000FE0133962FEFDF011D922A95E9F7C25F98
:10231000DE4F19821882CE50D14040E051E0BE011C
:102320006F5F7F4F0E94E31DAE01425F5E4F68E624
:1023300072E0CE0101960E943E26FC0120812223FC
:1023400009F41AC516E0712E08E0402E0E94F92506
:1023500001978930910508F003C48C5B9F4FFC0105
:10236000AE01425F5E4F68E672E080E090E00C9460
:102370009E290E943E268C01AE01425F5E4F6AE6B6
:1023800072E080E090E00E943E267C01C8010E943D
:10239000F925D0906204F8E0DF1609F4EAC38C0155
:1023A00011270C5A1B4FD8012C912111E2C3A70110
:1023B000682FCE018E5F9E4F0E941F088CE08D9D7E
:1023C000D0011124AA56BA4FFE01EE5FFE4F982F9E
:1023D00001900D929A95E1F790916204899FF00126
:1023E0001124EA56FA4F26ED36E1338722873187EA
:1023F000208781E0D8018C939F5F90936204B9C3DA
:102400000E943E268C01AE01425F5E4F6AE672E09A
:1024100080E090E00E943E26C8010E94F9257C01E0
:10242000D0905304B8E0DB1609F4A3C38C01112744
:102430000C5A1B4FF801808181119BC361E08E2DE6
:102440000E94271160E070E08E2D0E947C1EED2D11
:10245000F0E0EE0FFF1FEA50FA4FE082118283E0B6
:10246000D8018C93D394D092530483C30E943E2608
:102470008C01AE01425F5E4F68E672E080E090E062
:102480000E943E267C01AE01425F5E4F68E672E02C
:1024900080E090E00E943E266C01AE01425F5E4FFC
:1024A00068E672E080E090E00E943E264C01AE01BA
:1024B000425F5E4F68E672E080E090E00E943E2658
:1024C0005C01AE01425F5E4F6AE672E080E090E040
:1024D0000E943E26C4010E94F925682EC5010E9473
:1024E000F9251C01C6010E94F9256C01C7010E9453
:1024F000F9254C01C8010E94F9257C015090520435
:10250000B1E05B1609F435C39927FC01EC5AFB4F87
:10251000CE5EDE4FF983E883C251D14080818111C4
:1025200028C3C60199279C012C5A3B4FCC5EDE4F35
:1025300039832883C451D140D9018C91811119C3A9
:10254000F401FF27C05FDE4FF983E883C051D1401B
:10255000EC5AFB4F808181110CC318C30E943E26A8
:102560008C01AE01425F5E4F68E672E080E090E071
:102570000E943E267C01AE01425F5E4F68E672E03B
:1025800080E090E00E943E266C01AE01425F5E4F0B
:1025900068E672E080E090E00E943E265C01AE01B9
:1025A000425F5E4F68E672E080E090E00E943E2667
:1025B000AE01425F5E4F6AE672E080E090E00E940A
:1025C0003E26C5010E94F9255C01C6010E94F9253D
:1025D0006C01C7010E94F9257C01C8010E94F92500
:1025E00000E010E047C00E943E264C01AE01425F71
:1025F0005E4F68E672E080E090E00E943E267C013B
:10260000AE01425F5E4F68E672E080E090E00E94BB
:102610003E266C01AE01425F5E4F68E672E080E0EC
:1026200090E00E943E265C01AE01425F5E4F68E68C
:1026300072E080E090E00E943E268C01AE01425F95
:102640005E4F6AE672E080E090E00E943E26C8019C
:102650000E94F9258C01C5010E94F9255C01C60183
:102660000E94F9256C01C7010E94F9257C01C40173
:102670000E94F9259501A601B7010E94121A79C29C
:102680000E943E268C01AE01425F5E4F6AE672E018
:1026900080E090E00E943E26C8010E94F925D0907B
:1026A0005104B2E0DB1609F464C29C013327F9013E
:1026B000EC5AFB4F7F01208121115BC2FBE1DF9EC1
:1026C000800111240A551B4FD80119961C921997A5
:1026D000F801158616861786108A51961D921D924E
:1026E0001D921C92549712961C921E921197E4EB25
:1026F000F0E01496FC93EE93139716961C921E929C
:1027000015971896FC93EE9317978C930E943A1F97
:10271000D80155966D937D938D939C935897F701AF
:102720007082D394D092510424C20E943E267C0130
:10273000AE01425F5E4F68E672E080E090E00E948A
:102740003E266C01AE01425F5E4F6AE672E080E0B9
:1027500090E00E943E268C01C6010E94F925D82EE9
:10276000C7010E94F925980140E02EC00E943E2634
:102770007C01AE01425F5E4F68E672E080E090E06F
:102780000E943E266C01AE01425F5E4F68E672E039
:1027900080E090E00E943E265C01AE01425F5E4F09
:1027A0006AE672E080E090E00E943E268C01C5015E
:1027B0000E94F925B82EC6010E94F925D82EC7011E
:1027C0000E94F92598014B2D6D2D0E946B17D1C1E8
:1027D0000E943E268C01AE01425F5E4F68E672E0C9
:1027E00080E090E00E943E267C01AE01425F5E4F99
:1027F00068E672E080E090E00E943E266C01AE0147
:10280000425F5E4F6AE672E080E090E00E943E2602
:10281000C6010E94F925B82EC7010E94F925A82EED
:10282000C8010E94F925982E80915004823009F445
:10283000A0C1E82EF12C7E9CC0017F9C900D11243C
:102840009C0126563B4F6901D90113969C92139720
:102850001496AC9214971596BC928CE090E00E946E
:10286000A4298C01FC011382128225EF31E031830F
:1028700020839482A086B18612864386D601119663
:102880009C938E9381E012968C9310924F04109239
:102890004E0410924D0410924C0410924B048093FD
:1028A0004A041092490461E082E10E94F81061E05C
:1028B00083E10E94F8108091B9008E7F8093B90067
:1028C0008091B9008D7F8093B90088E48093B8002F
:1028D00085E48093BC00EDE8F9E0F0934804E093D0
:1028E00047042EE839E03093460420934504D8018C
:1028F00015961C92159719968C911997823010F0A5
:1029000015964C92F8019285992329F0813019F49B
:1029100085818460858362E370E080E090E00E94BE
:10292000001FD8011B966C91C8010E94170568EE24
:1029300073E080E090E00E94001F60E3C8010E9405
:102940007B058BE496E40197F1F760E3C8010E94F0
:102950007B058BE496E40197F1F760E3C8010E94E0
:102960007B0583E592E00197F1F760E2C8010E94E0
:102970007B05F8016581606240E0C8010E94940512
:1029800084E0D80116968C9340E06CE0C8010E9468
:10299000940540E061E0C8010E9494058BE39FE14B
:1029A0000197F1F782E0F801878340E066E0C80113
:1029B0000E94940540E062E0C8010E9494058BE308
:1029C0009FE10197F1F77E9C80017F9C100D1124FF
:1029D00006561B4FD8018D919C91FC01438660E007
:1029E0000E941705D80112968C911297882309F43A
:1029F000B1C015966C911597669561508D919C911B
:102A00000E942B1EB12C6801B4E0CB0ED11C4B2DC3
:102A100050E0F601208130E0C9010A9797FD019648
:102A2000959587954817590749F06CE672E0D801EB
:102A30008D919C910E94F901B394E9CF7E9C800115
:102A40007F9C100D112406561B4F6EE071E0F801BB
:102A5000808191810E94D501B12C6801F4E0CF0EF4
:102A6000D11C4B2D50E0D6012C9130E0C9010A97C2
:102A700097FD0196959587954817590749F06CE0A1
:102A800071E0F801808191810E94D501B394E9CF72
:102A90007E9C80017F9C100D112406561B4FD8018F
:102AA00015966C91159766958D919C910E942B1EA1
:102AB000B12C6801B4E0CB0ED11C4B2D50E0F601D7
:102AC000208130E0C901069797FD0196959587957D
:102AD0004817590749F06AE071E0D8018D919C913F
:102AE0000E94D501B394E9CF7E9C80017F9C100D9C
:102AF000112406561B4F63E071E0F801808191813B
:102B00000E94D501B12C6801F4E0CF0ED11C4B2DF1
:102B100050E0D6012C9130E0C901069797FD01964F
:102B2000959587954817590749F061E071E0F801DC
:102B3000808191810E94D501B394E9CF7E9CF00100
:102B40007F9CF00D1124E656FB4F60E0808191815F
:102B50000E942B1E809150048F5F8093500409C007
:102B6000AE01425F5E4F6AE672E080E090E00E9454
:102B70003E26AE01425F5E4F68E672E080E090E084
:102B80000E943E26009709F0E1CBF6C0252D30E0EB
:102B9000CA5EDE4F39832883C651D14088E590E074
:102BA0000E94A4298C01C1019927F801E05BFF4F25
:102BB000F182E082580132E5A30EB11CD501CD921D
:102BC000DC926801B4E5CB0ED11CF60191828082C3
:102BD0009C01215031092830310508F0CAC0480154
:102BE000F6E58F0E911CD4018D939C9361E08E2DA0
:102BF0000E94271161E0F50180810E94271161E0A8
:102C0000D6018C910E94271161E0F60180810E941B
:102C1000F810D801A05BBF4F1196FC92EE92F8011C
:102C200070961192AE17BF07E1F7E12CF12CD40199
:102C30008D919C91E816F9067CF520E04FE0B701F4
:102C4000C8010E94CE0DF7FC0CC0F4018081918177
:102C5000E816F90634F427E04BE0B701C8010E94FA
:102C6000CE0D20E049E0B701C8010E94CE0DF7FC6F
:102C70000AC0D4018D919C91E816F90624F4B7019D
:102C8000C8010E94530E41E0B701C8010E94B20E74
:102C9000BFEFEB1AFB0ACBCFCA5EDE4FE881F981AA
:102CA000C651D140EE0FFF1FEE0FFF1FEE56FA4F39
:102CB000DF010D931D9381E082832382E12CF12CAF
:102CC0008F0133965F016D01D5018C91282F30E083
:102CD0002E153F0591F1F6019081992399F0E816A0
:102CE00088F4B7017727D8018D919C91FC01EA5AAD
:102CF000FF4F208131816217730724F4262D4AE0AB
:102D00000E94CE0D40E0B701F801808191810E94C0
:102D1000B20EF7FC0EC0D8018D919C91FC01EA5ACD
:102D2000FF4F20813181E216F3061CF4B7010E94A7
:102D3000530EBFEFEB1AFB0AC7CF84E0CE5EDE4F27
:102D4000E881F981C251D1408083C05FDE4FE881C4
:102D5000F981C051D140EC5AFB4F8083CC5EDE4FED
:102D6000A881B981C451D1408C935394509252049C
:102D700000CF88E090E033CFC95EDE4F0FB6F89405
:102D8000DEBF0FBECDBFDF91CF911F910F91FF909E
:102D9000EF90DF90CF90BF90AF909F908F907F90FB
:102DA0006F905F904F903F902F9008950F931F93D7
:102DB000CF93C82F8A0187E090E00E94711DC8015F
:102DC0000E94C81D8091A306882399F0609137075F
:102DD00080913407909135070E94CE014C2F50E02E
:102DE00060E070E02AE080913407909135070E94FE
:102DF000F61CCF911F910F910C94861D0F931F937A
:102E0000CF93C82F8A0186E090E00E94711DC8010F
:102E10000E94C81D8091A306882399F0609137070E
:102E200080913407909135070E94CE014C2F50E0DD
:102E300060E070E02AE080913407909135070E94AD
:102E4000F61CCF911F910F910C94861DDF92EF928B
:102E5000FF920F931F93CF93DF93D82EC2E9D5E053
:102E6000E12CF12C8091520490E0E816F90691F0E3
:102E700010E08B81811749F0612F70E04D2D888122
:102E800099810E94B20E1F5FF4CF8FEFE81AF80A03
:102E90002496E8CFC6EFD5E000E010E0809153041F
:102EA00090E00817190779F0DD2021F0198260E021
:102EB00070E002C0698170E088810E947C1E0F5F13
:102EC0001F4F2296EBCFDF91CF911F910F91FF9073
:102ED000EF90DF9008955F926F927F928F929F9212
:102EE000AF92BF92CF92DF92EF92FF920F931F9318
:102EF000CF93DF93CDB7DEB7CB55D1090FB6F8949A
:102F0000DEBF0FBECDBF7090910292E0791609F43A
:102F1000E6C0E82FF0E0DF01AC5ABB4F7D019C9189
:102F20009111DDC0E62FF0E0DF01AC5ABB4F6D011F
:102F30009C919111D4C0642E562E682FA72CB12CD1
:102F4000FE01349687E4DF011D928A95E9F788E255
:102F500090E06C969FAF8EAF6C971B828BE58A9D3D
:102F600040018B9D900C1124840104521B4F339718
:102F7000D80101900D928A95E1F7F801E45BFF4FCB
:102F80001082118212821382329731832083F801DA
:102F900060835182E85AFF4F4083C40181529B4FA6
:102FA0000E94571E652DC40188519B4F0E94571ED9
:102FB000D80155961C92559757961C921E9256977B
:102FC00059961C921E925897F801128E138E148EE9
:102FD000158E88EE93E0A0E0B0E0868F978FA0A3D7
:102FE000B1A3D401A250BB4F85E0869DF00111240E
:102FF000E350FE4F01900D928A95E1F70E943A1F2F
:10300000F801E05CFF4F60837183828393832BE53B
:10301000729EF0011124ED5FFA4F20E0119211929F
:103020001192119260877187828793872F5F233077
:10303000A9F78BE58A9DF0018B9DF00D1124E452D8
:10304000FB4F17AEDF01AC5BBF4F26EA30E01196B5
:103050003C932E9348E15CEF6FEF7FEF428F538FED
:10306000648F758F48EE53E060E070E0468F578FB5
:1030700060A371A318964D915C91BA0106A002C09D
:10308000759567950A94E2F7268937892370332767
:10309000262B372B378B268B518F408F91E09283D5
:1030A00020919102829FC001112484529B4FFC0108
:1030B000E05BFF4F4EEF56E15183408332965183E0
:1030C000408332965183408332965183408388E017
:1030D000F7018083D6018C932F5F20939102C55A0C
:1030E000DF4F0FB6F894DEBF0FBECDBFDF91CF919B
:1030F0001F910F91FF90EF90DF90CF90BF90AF9016
:103100009F908F907F906F905F900895E4E5F4E03A
:103110009081981301C01082319694E0E236F9074D
:10312000B9F70895CF92DF92EF92FF92F82E4BE01D
:1031300050E064E171E080E390E00E94A910F1109A
:1031400009C080911401833529F4809115018E34D2
:1031500009F45BC080E480937C0080917A008064F5
:1031600080937A0080917A0086FDFCCF6091780090
:103170008091790070E0782B072E000C880B990B5A
:10318000611571058105910511F00E94F0250E94DD
:10319000A225CC24CA942FE0D22EE12CF12CA70139
:1031A00096010E94CE277F936F938EE692E09F93C5
:1031B0008F9384E191E09F938F930E94AF2B0E94A5
:1031C000A225A70196010E94CE277F936F9387E7E0
:1031D00092E09F938F938BE191E09F938F930E9456
:1031E000AF2B8DB79EB70C960FB6F8949EBF0FBE4F
:1031F0008DBF4BE050E064E171E080E390E0FF9030
:10320000EF90DF90CF900C94051EFF90EF90DF9031
:10321000CF9008950F931F93CF93DF9300D000D0EA
:1032200000D0CDB7DEB70E943A1F6093880270933A
:10323000890280938A0290938B020E94E31CBC0156
:10324000CE0101960E9480010D811E8160912303B1
:1032500070912403C801860F971F40E051E0481B7E
:10326000590B42305105A4F16B5D7C4F611571051E
:1032700021F0CE0101960E94E31D4091230350915D
:103280002403040F151F109324030093230380913C
:10329000A306811135C085E090E00E94711D8091E8
:1032A000A306882391F060913707809134079091AD
:1032B00035070E94CE01A801110F660B770B809194
:1032C0003407909135070E943F1D0E94861D18C04B
:1032D0008091A306811114C085E090E00E94711DC9
:1032E0008091A306882389F3609137078091340782
:1032F000909135070E94CE014FEF5FEFBA01DFCF0B
:1033000089819A810E943C2A26960FB6F894DEBFE6
:103310000FBECDBFDF91CF911F910F910895CF9335
:10332000DF9300D000D000D0CDB7DEB72091650488
:1033300030916604809163049091640428173907E2
:1033400021F41092640410926304809163049091BC
:10335000640490936604809365041092250380E0D2
:103360000E949218E4E5F4E0119244E0E236F4079A
:10337000D9F70E943A1F6093880270938902809364
:103380008A0290938B020E94CE0E40E051E065E2EB
:1033900073E08BE390E00E94A910E5E2F3E080E0A7
:1033A00090E0382F292F811541E0940749F0419191
:1033B00001964111F6CF309323032093240304C0D8
:1033C000909324038093230365E273E0CE0101967A
:1033D0000E948001CE0101960E94631189819A8129
:1033E0000E943C2A0E94C50E198241E050E0BE01B5
:1033F0006F5F7F4F80E090E00E94A9108981833247
:1034000041F44FE250E06FE171E081E090E00E9412
:10341000A91026960FB6F894DEBF0FBECDBFDF9180
:10342000CF9108952F923F924F925F926F927F9229
:103430008F929F92AF92BF92CF92DF92EF92FF92C4
:103440000F931F93CF93DF93CDB7DEB72A970FB6B5
:10345000F894DEBF0FBECDBFE0919002E23009F4D8
:10346000EDC1FC01FF27DF01AC5ABB4FBA83A98332
:10347000EC91E111E3C1FB01FF27DF01AC5ABB4F27
:10348000BC83AB83EC91E111D9C1FA01FF27DF01C5
:10349000AC5ABB4FBE83AD83EC91E111CFC1F901B2
:1034A000FF27DF01AC5ABB4FB887AF83EC91E11126
:1034B000C5C1101611063CF4F801FF27EC5AFB4F6A
:1034C000E081E111BBC149017A015B016C0186E534
:1034D00090E00E94A4299A8789873C01F2E06F0E50
:1034E000711C8AE192E0A985BA8513969C938E930C
:1034F000129784E014968C931497FD011586168616
:103500001786108A51961D921D921D921C925497F7
:10351000158A168A178A108E212C312C80E8482EA5
:103520008FE3582E59962D923D924D925C925C9766
:10353000158E168E178E10A291962D923D924D9259
:103540005C92949715A216A217A210A681E090E0B3
:1035500096A785A78FEF80AB99961D921D921D921D
:103560001C929C9715968C9215971696AC9216976E
:103570001796CC9217971896EC92189715AA16AA38
:1035800017AA10AED9961D921D921D921C92DC971F
:10359000FD9610821182128213825D01B1E4AB0E9E
:1035A000B11CF5012082318242825382E985FA857D
:1035B000EB5BFF4F1082A985BA8519961C9219976B
:1035C0001A961C921A971B961C921B971C961C927B
:1035D000C3010E94A304E985FA85C58CD68CE78CCB
:1035E000F0A0A2019101C701B6010E9482268823A2
:1035F00039F1E985FA8565A976A987A990AD0E9478
:103600008926A70196010E94E8260E944729A985DC
:10361000BA85D5966D937D938D939C93D89786E8C4
:1036200096E6A9E6B9E4E985FA8581AF92AFA3AF42
:10363000B4AF258E368E478E50A2C3010E9472060B
:103640004CE752E0602FE984FA84B6E4EB0EF11CFB
:10365000C7010E941F08E985FA8511828091B9028D
:10366000E82FF0E0EE0FFF1FEB54FD4F29853A8560
:10367000318320838F5F8093B90287E394E0D70181
:1036800019969C938E9318971B969C938E931A97DA
:10369000E0919002F0E0EE0FFF1FE457FD4F318301
:1036A000208320E030E048EC53E4E985FA85618D21
:1036B000728D838D948D0E948226882309F445C0E3
:1036C00080E090E0A8ECB3E4E985FA85818F928FE1
:1036D000A38FB48F80E090E4ACE1B5E4F501808382
:1036E0009183A283B383E985FA8585A996A9A7A9C1
:1036F000B0AD181619061A061B063CF565897689C1
:103700008789908D9B01AC010E94E8266B017C01AA
:10371000A985BA855D966D917D918D919C919097CB
:103720009B01AC010E9469289B01AC01C701B60155
:103730000E94D5280E944729E985FA8565AB76ABBA
:1037400087AB90AFC3010E947206E0919002F0E057
:10375000EE0FFF1FE457FD4F208131813A87298703
:10376000D9015D96CD90DD90ED90FC90909720E092
:1037700030E048E454E4C701B6010E948226882361
:10378000C1F1E985FA8565A976A987A990AD0E945E
:1037900089264B015C0120E030E048E454E4C70195
:1037A000B6010E94D5289B01AC01C501B4010E945D
:1037B000E8260E944729A985BA85D5966D937D9301
:1037C0008D939C93D89781E098E0A4E0B7E4E985D5
:1037D000FA8581AF92AFA3AFB4AF80E090E0A8E4E8
:1037E000B4E4858F968FA78FB0A3CF0102960E9475
:1037F000720689E0A981BA818C93EB81FC81808378
:10380000AD81BE818C93EF81F885808310161106FF
:1038100084F41127F801EC5AFB4F8083E091900269
:10382000F0E0EE0FFF1FE457FD4F808191810E9471
:10383000581C809190028F5F809390022A960FB659
:10384000F894DEBF0FBECDBFDF91CF911F910F91D6
:10385000FF90EF90DF90CF90BF90AF909F908F90B0
:103860007F906F905F904F903F902F900895AC01A4
:103870001092A8069091380780913707FA01BF018E
:10388000641B750BDF012081222381F03091A80693
:103890002093A806291304C0931302C01092A8060F
:1038A00031962C912813EBCF931749F3CB01089550
:1038B000FC01DC01A85BBF4F8C918823D1F0818192
:1038C000811117C081E0818381899289A389B4899C
:1038D00080369947AE4FBF4F61F080E699E7AEEF73
:1038E000BFEF818B928BA38BB48BCF0102960C948C
:1038F000720608950F931F93CF93DF9380912C0747
:10390000882309F442C0813031F482E080932C078F
:10391000CCEAD6E002C0C0E0D0E080912D07882339
:1039200051F1209721F4C0913107D09132078E01D7
:10393000CE010E94371C892B29F42196F801808141
:103940008111F5CFF8018081882309F1C8010E9417
:10395000371CF801E80FF91F8081882311F01082CD
:103960003196F0933207E0933107902F812F909397
:103970002F078093300780912F0790913007892B74
:1039800021F081E080932D0705C080E003C090E026
:1039900080E0EDCFDF91CF911F910F9108950E94AC
:1039A0007A1C882359F081E080932D0780932E079D
:1039B00080912F07909130070C94F92510922E07D3
:1039C00080E090E008950E947A1C882351F081E005
:1039D00080932D0780932E0780912F0790913007B9
:1039E000089510922E0780E090E008958F929F92A4
:1039F000AF92BF92EF92FF920F931F93CF93DF93FB
:103A0000CDB7DEB7A1970FB6F894DEBF0FBECDBF1E
:103A10007C01FA01CB0119A2223008F42AE08E01C0
:103A20000F5D1F4F822E912CA12CB12CBF01A5013F
:103A300094010E943728F901CA01015011096A3026
:103A400014F4605D01C0695CD8016C93232B242BB6
:103A5000252B61F7B801C7010E94F901A1960FB6A5
:103A6000F894DEBF0FBECDBFDF91CF911F910F91B4
:103A7000FF90EF90BF90AF909F908F900895CF925E
:103A8000DF92EF92FF920F931F93CF93DF9377FF15
:103A90001DC06A017B01EC016DE20E94CE018C0128
:103AA00044275527BA014C195D096E097F092AE0A0
:103AB000CE010E94F61C800F911FDF91CF911F91C4
:103AC0000F91FF90EF90DF90CF9008952AE0DF9163
:103AD000CF911F910F91FF90EF90DF90CF900C94BA
:103AE000F61CAC018091A30681110FC081E0809388
:103AF000A3068093AA06052E000C660B770B809117
:103B00003407909135070C943F1D08958091A306CA
:103B10008823A1F060913607809134079091350792
:103B20000E94CE018091AB06882341F065E872E0E7
:103B300080913407909135070E94F9011092AA06EE
:103B40001092A30680E00895CF93DF932091A306FF
:103B500021111AC0EB010E94711D8091A3068823D8
:103B600079F06091370780913407909135070E9472
:103B7000CE01BE0180913407909135070E94D50196
:103B8000DF91CF910C94861D80E0DF91CF91089555
:103B9000CF93DF932091A306222391F0EC01609153
:103BA000370780913407909135070E94CE01BE01FE
:103BB0008091340790913507DF91CF910C94F901F2
:103BC000DF91CF9108950F931F93CF93DF93FC0163
:103BD000C481D581209719F4FB01108211C0415096
:103BE00051094C175D0708F4EA018B01FC01608163
:103BF0007181AE01C8010E94A02BC00FD11F188295
:103C0000DF91CF911F910F910895CF92DF92EF92A4
:103C1000FF920F931F93CF93DF936C017B018A0177
:103C2000C0E0D0E0C017D10760F4B6016C0F7D1F73
:103C300041E050E0C7018C0F9D1F0E94B6272196DE
:103C4000F1CFC801DF91CF911F910F91FF90EF90BD
:103C5000DF90CF900895CF93DF93CDB7DEB728974D
:103C60000FB6F894DEBF0FBECDBF28E0E0E3F2E070
:103C7000DE01119601900D922A95E1F7FC01218554
:103C8000261710F46FEF620FFE013196E60FF11D5B
:103C9000E60FF11D6081606840E028960FB6F89449
:103CA000DEBF0FBECDBFDF91CF910C9494051F9363
:103CB000CF93DF93EC01162F688385E090E098871F
:103CC0008F8360E0812F0E94271161E0812F0E9485
:103CD000F8100E943A1F6B837C838D839E838881BA
:103CE0000E94CF1021E0892B09F420E02A83298348
:103CF000DF91CF911F9108951F93CF93DF93182FDA
:103D0000EB0161E00E942711209711F460E004C0EC
:103D1000CF3FD10539F461E0812FDF91CF911F9121
:103D20000C94F810E12FF0E0E351FF4FE491E33001
:103D3000F9F048F4E130B9F0E230A1F584B58062E1
:103D400084BDC8BD34C0E730E9F0E83019F1E43093
:103D500049F580918000806280938000D0938B0031
:103D6000C0938A0024C084B5806884BDC7BD1FC0CD
:103D700080918000806880938000D0938900C093F8
:103D8000880015C08091B00080688093B000C09317
:103D9000B3000DC08091B00080628093B000C093EA
:103DA000B40005C0C038D1050CF0B5CFAFCFDF915E
:103DB000CF911F9108953FB7F89480917C0790911F
:103DC0007D07A0917E07B0917F0726B5A89B05C00F
:103DD0002F3F19F00196A11DB11D3FBFBA2FA92F8A
:103DE000982F8827820F911DA11DB11DBC01CD0107
:103DF00042E0660F771F881F991F4A95D1F70895F3
:103E00008F929F92AF92BF92CF92DF92EF92FF92EA
:103E10006B017C010E94DB1E4B015C01C114D104CB
:103E2000E104F104F1F00E94DB1EDC01CB018819F2
:103E30009909AA09BB09883E9340A105B10570F311
:103E400021E0C21AD108E108F10888EE880E83E06B
:103E5000981EA11CB11CC114D104E104F10419F78E
:103E6000DDCFFF90EF90DF90CF90BF90AF909F900D
:103E70008F9008952FB7F894609178077091790723
:103E800080917A0790917B072FBF08951F920F9220
:103E90000FB60F9211242F933F938F939F93AF935D
:103EA000BF938091780790917907A0917A07B0919C
:103EB0007B073091770723E0230F2D3720F40196FD
:103EC000A11DB11D05C026E8230F0296A11DB11D3D
:103ED000209377078093780790937907A0937A07C8
:103EE000B0937B0780917C0790917D07A0917E071E
:103EF000B0917F070196A11DB11D80937C0790931F
:103F00007D07A0937E07B0937F07BF91AF919F91EC
:103F10008F913F912F910F900FBE0F901F9018958A
:103F2000789484B5826084BD84B5816084BD85B594
:103F3000826085BD85B5816085BD80916E008160A0
:103F400080936E0010928100809181008260809346
:103F50008100809181008160809381008091800048
:103F60008160809380008091B10084608093B10073
:103F70008091B00081608093B00080917A0084606D
:103F800080937A0080917A00826080937A00809199
:103F90007A00816080937A0080917A0080688093B3
:103FA0007A001092C100E0911606F091170682E0A7
:103FB0008083E0911206F09113061082E0911406BE
:103FC000F091150680E1808310921E06E0911A069A
:103FD000F0911B0686E08083E0911806F0911906A7
:103FE000808180618083E0911806F09119068081BC
:103FF00088608083E0911806F091190680818068BE
:104000008083E0911806F091190680818F7D80836E
:1040100089EA9CE090933A078093390788E79EE00D
:1040200090933C0780933B078AEB9FE090933E0779
:1040300080933D0780EB9EE09093700780936F071D
:1040400083E99CE09093400780933F0788E39CE0DE
:1040500090934207809341078AE29BE09093440744
:104060008093430789E49AE090934E0780934D072D
:1040700085E39AE090935407809353078AE099E18F
:1040800090935207809351078DE69FE090935607D7
:104090008093550789EB9CE09093580780935707CE
:1040A00080E690E190935C0780935B0785E79FE053
:1040B000909362078093610789E69AE09093640782
:1040C000809363078CE19CE090936607809365077B
:1040D00086E79AE090936807809367078BE19AE000
:1040E00090936A07809369078FE899E190936C0732
:1040F00080936B0785EA9AE090936E0780936D0733
:1041000081E08093AB060E948F199924939480914B
:10411000AA068111C3C08091340790913507DC0154
:10412000ED91FC910084F185E02D0995892B09F42E
:10413000B5C08091340790913507DC01ED91FC9179
:104140000084F185E02D0995803491050CF0A2C022
:104150008091340790913507DC01ED91FC9100844A
:10416000F185E02D09957C01C0913407D091350788
:104170000CEEA02E06E0B02E650100E010E0E01687
:10418000F10619F4C0E0D0E056C00E943A1F6887DB
:1041900079878A879B87E881F9810284F385E02DFE
:1041A000CE01099597FF4CC30E943A1F4884598459
:1041B0006A847B84DC01CB0184199509A609B709BF
:1041C0004C805D806E807F8084159505A605B705BF
:1041D00010F3D8CFF50191915F0110922C07309127
:1041E00038072091A9069093A906931741F14091B1
:1041F00036078091A506E82FF0E0ED55F94F9413AE
:1042000023C0321709F11186882321F090922C07E0
:104210001092A9061092A5061092300710922F074F
:10422000109232071092310790922D0780912C073F
:10423000813099F02196CE15DF0564F268CF921394
:10424000D6CF1092A906D3CF91878F5F8093A50612
:104250009091A7068917F0F6E9CF0E94CF1C8093B2
:10426000A4068E3178F420912E07222359F0FC0108
:10427000FF27EE0FFF1FE55CF84F0190F081E02D66
:10428000309731F4E0913907F0913A07309791F285
:104290000995D0CF90E4E92EF12C66CF809193025E
:1042A0008111D8C20E943A1F0091880210918902A0
:1042B00020918A0230918B02DC01CB01801B910B93
:1042C000A20BB30B813A9B4BAD40B10508F0BEC2C7
:1042D00080919202882309F4B0C2C6E9D5E000E0DB
:1042E00010E08091620490E08017910739F0CE01D0
:1042F0000E94E6070F5F1F4F2C96F3CFCCEDD4E062
:1043000003E015E0212C312C8091910290E0821580
:10431000930509F484C18A81882309F478C1CE0108
:1043200003960E946D0DCE010C960E946D0DDE84E9
:1043300021E0D2268D2D880FDD80D226D82A60E09C
:10434000C8010E94D10CCD88DC1409F4A6C07E01FE
:1043500046E4E40EF11CD7016D917D918D919C9105
:104360000E94472965307105B4F0F70160817181C1
:10437000828193810E944729603171057CF4D701C5
:104380006D917D918D919C910E9447297B01B5E0B3
:10439000EB1AF10806C0E12CF12C03C0BAE0EB2EB9
:1043A000F12C8E8D9F8DA8A1B9A18A8C9B8CAC8C91
:1043B000BD8CBC01CD01681979098A099B096E3150
:1043C0007105810591054CF02EE130E040E050E0B0
:1043D0000E94CE27CA01B90104C061E070E080E00C
:1043E00090E04701FF0CAA08BB08A50194010E94B8
:1043F00082299B01AC01C501B4010E9482299B0165
:10440000AC01C501B4010E94822928EE33E040E0EE
:1044100050E00E94CE2749015A01EFEF8E1A9E0A02
:10442000AE0ABE0A2C2D44E02402F00111248D2D89
:104430000D2C000C990BE82BF92BE75AFE4F6081ED
:10444000062E000C770B689DA001699D500D789D8C
:10445000500D11242E893F89420F531F5F8B4E8BC5
:104460005BE5529D9001539D300D112424523B4F2A
:10447000F901E80FF91F82A1882371F061E0C801FA
:104480000E94D10C8E899F890EA002C095958795B8
:104490000A94E2F7998F888FDD8A888C998C092C91
:1044A000000CAA08BB08F80185A196A1A7A1B0A598
:1044B00088169906AA06BB0609F4A9C0750164010D
:1044C000C81AD90AEA0AFB0AF7FE05C044244A942E
:1044D000542C320104C0412C512C32014394B701B9
:1044E000A601F7FE07C044275527BA014C195D09FC
:1044F0006E097F09D801D2968D919C91D397A0E047
:10450000B0E0481759076A077B0714F5B1E04B166E
:1045100051046104710471F4D8019996ED91FC91F4
:104520009A97309739F093964D915C919497688162
:1045300080E021C0D8019D96ED91FC919E97309727
:1045400051F193964D915C919497698182E022C0DC
:10455000B1E04B1651046104710479F4D8019B96C3
:10456000ED91FC919C97309741F093964D915C9121
:104570009497688181E0099534C0D8019F96ED91A8
:10458000FC91D097309739F093964D915C91949728
:10459000698183E00995B1E04B165104610471040F
:1045A00001F1472046204520409451F5CC0CDD1CFC
:1045B000EE1CFF1CD501C4018C199D09AE09BF0971
:1045C000803C904EAF4FBF4FDCF48E899F89837043
:1045D00099279F8B8E8B198E188E812C912C5401CC
:1045E0000FC0CC0CDD1CEE1CFF1CC80CD91CEA1C37
:1045F000FB1CF1E4CF16FFE1DF06E104F1042CF728
:10460000D80195968D929D92AD92BC929897BFEFEE
:104610002B1A3B0AC55ADF4F055A1F4F75CE7CE84F
:10462000C72E72E0D72EE12CF12C8091900290E001
:104630008E159F0509F452C0F601C191D1916F0109
:104640008DA19EA1AFA1B8A5892B8A2B8B2BE9F157
:104650000E94DB1E4B015C0189A59AA5ABA5BCA5F8
:10466000B501A401481B590B6A0B7B0B8DA19EA1C0
:10467000AFA1B8A5481759076A077B0730F1FE01BB
:10468000EB5BFF4F20818D859E85AF85B889222306
:1046900021F00196A11DB11D03C00197A109B10927
:1046A0008D879E87AF87B88B4D855E856F857889AE
:1046B0008E010E5F1F4FC8010E94F20389A69AA6C1
:1046C000ABA6BCA6C8010E947206CE018A5B9F4FB2
:1046D0000E94E607FFEFEF1AFF0AA7CFC6EAD4E071
:1046E00000E010E058E8E52EF12C68E5C62E62E007
:1046F000D62E8091510490E08017910709F49DC057
:1047000089899A89AB89BC894D855E856F85788951
:1047100084179507A607B70709F48BC048175907F0
:104720006A077B0724F40197A109B10903C0019628
:10473000A11DB11D898B9A8BAB8BBC8B0E943A1F3C
:104740006D8B7E8B8F8B988F89899A89803222E03E
:1047500092070CF03DC097FD06C0853B91052CF0FB
:1047600084EB90E002C080E090E02B854701821A44
:10477000910827FD9394D401AA0FBB1FAA0FBB1F5A
:104780004D01BB0FAA08BB082C85A601421B51098D
:1047900027FD53959A01220F331F220F331FA901C2
:1047A000330F660B770B9A01AB01281939094A09B7
:1047B0005B09DC010E94F82724EB30E040E050E088
:1047C0000E94CE27DA01C901880D991DAA1DBB1DC3
:1047D0002A852C3070F53B85A701431B510937FD15
:1047E0005395440F551F440F551F841795077CF0B0
:1047F0003C85B601631B710937FD7395660F771F02
:10480000660F771FAC01681779070CF4AB01CA017A
:104810000297880F991F4FB7F89430E0F901EE0F17
:10482000FF1F2E0F3F1FF901EB58FB4F928381832F
:104830004FBF0F5F1F4F6B965CCF0E94800265CC0D
:10484000F60181936F010F5F1F4F99CC81E0809338
:10485000930219C00E943A1F0091880210918902A8
:1048600020918A0230918B02DC01CB01801B910BDD
:10487000A20BB30B803A9B4BAD40B10508F028CD9D
:104880001092930280E00E94261722CDFF920F9390
:104890001F93CF93DF93109209061092080688EEBB
:1048A00093E0A0E0B0E080930A0690930B06A093FB
:1048B0000C06B0930D062CE332E0309307062093EC
:1048C000060625EC30E0309313062093120624EC04
:1048D00030E0309315062093140620EC30E030933E
:1048E00017062093160621EC30E03093190620932A
:1048F000180622EC30E030931B0620931A0626ECB3
:1049000030E030931D0620931C0610921F06109273
:104910002006109221061092220610926A0410922C
:10492000690480936B0490936C04A0936D04B0931E
:104930006E048AE592E0909368048093670484E6AD
:1049400090E0909374048093730410923A0710924D
:10495000390786E096E090933507809334071092EC
:10496000AB068CE2809337078BE3809336078FE2A8
:104970008093380780E48093A6068FE38093A70690
:104980001092A5061092300710922F07109232074E
:104990001092310781E080932D07EBE3F7E011924D
:1049A000119287E0E737F807D1F71092AA06C6EF11
:1049B000D5E006E016E0FF24F394F882198261E066
:1049C00081E00E942711698170E088810E947C1E2D
:1049D00022960C171D0789F7C6E9D5E04EE752E08D
:1049E00061E0CE010E941F082C96B5E0C63FDB07B0
:1049F000A9F71092940527E4EFEDF4E0DF01822F90
:104A00001D928A95E9F788E290E0909336058093AD
:104A100035051092DE04EAE3F5E0DF011D922A95E8
:104A2000E9F7909391058093900510923905809154
:104A300099048C3020F08FEF8093B00413C091E084
:104A4000980F909399048093B00490E0FC01EE0FCE
:104A5000FF1F8E0F9F1FFC01EB58FB4F88EB9BE065
:104A600092838183809199048C3020F08FEF809322
:104A7000CB0413C091E0980F909399048093CB04DA
:104A800090E0FC01EE0FFF1F8E0F9F1FFC01EB5803
:104A9000FB4F88EB9BE09283818310929C041092E1
:104AA000A204DF91CF911F910F91FF9008958F92F3
:104AB0009F92AF92BF92CF92DF92EF92FF92CF93ED
:104AC000DF93EC01688179818A819B816115710591
:104AD0008105910521F464E279ED8BE597E02DE104
:104AE00033EF41E050E00E94CE2749015A019B017B
:104AF000AC01A7EAB1E40E94ED276B017C01ACEEAA
:104B0000B4EFA50194010E94FB27DC01CB018C0DC1
:104B10009D1DAE1DBF1DB7FF03C00197A109B04881
:104B200088839983AA83BB83BC01CD019F77DF91E2
:104B3000CF91FF90EF90DF90CF90BF90AF909F907C
:104B40008F9008958F929F92AF92BF92CF92DF92F3
:104B5000EF92FF9260914F0170915001809151014D
:104B600090915201611571058105910521F464E26E
:104B700079ED8BE597E02DE133EF41E050E00E94C5
:104B8000CE2749015A019B01AC01A7EAB1E40E947A
:104B9000ED276B017C01ACEEB4EFA50194010E94FE
:104BA000FB27DC01CB018C0D9D1DAE1DBF1DB7FF8A
:104BB00003C00197A109B04880934F019093500121
:104BC000A0935101B0935201BC01CD019F77FF909A
:104BD000EF90DF90CF90BF90AF909F908F9008950F
:104BE00060934F0170935001809351019093520153
:104BF0000895FC0188279927E89421912032E9F350
:104C0000293010F02E30C8F32B3241F02D3239F418
:104C1000689404C00E947A26820F911D219120532E
:104C20002A30C0F31EF4909581959F4F08951F93ED
:104C3000FC0199278827BC01E89411911032E9F30F
:104C4000193010F01E30C8F31B3251F01D3249F4F8
:104C5000689406C00E946526610F711D811D911D1B
:104C6000119110531A30B0F33EF4909580957095E1
:104C700061957F4F8F4F9F4F1F910895FA01A1912A
:104C8000B081009719F41097E1F0CD01DC01CD015E
:104C90000D90002011F4C00113C0FB0121912223CB
:104CA00019F02015D9F7F3CFFB012191201519F444
:104CB0001E92119606C02223C1F70D900020A1F785
:104CC000D001FA01A193B0830895592F482F372FAF
:104CD000262F660F771F881F991F660F771F881F63
:104CE000991F620F731F841F951F660F771F881F00
:104CF000991F08957AE0979F902D879F802D910DA1
:104D0000112408950E94C42608F481E00895E894CF
:104D100009C097FB3EF490958095709561957F4F03
:104D20008F4F9F4F9923A9F0F92F96E9BB279395B1
:104D3000F695879577956795B795F111F8CFFAF4C1
:104D4000BB0F11F460FF1BC06F5F7F4F8F4F9F4FF2
:104D500016C0882311F096E911C0772321F09EE850
:104D6000872F762F05C0662371F096E8862F70E0B6
:104D700060E02AF09A95660F771F881FDAF7880F90
:104D80009695879597F90895990F0008550FAA0BE6
:104D9000E0E8FEEF16161706E807F907C0F012164E
:104DA0001306E407F50798F0621B730B840B950B51
:104DB00039F40A2661F0232B242B252B21F40895A6
:104DC0000A2609F4A140A6958FEF811D811D089543
:104DD0000E94FB260C946C270E945E2738F00E94EC
:104DE000652720F0952311F00C9455270C945B2730
:104DF00011240C94A0270E947D2770F3959FC1F386
:104E0000950F50E0551F629FF001729FBB27F00D78
:104E1000B11D639FAA27F00DB11DAA1F649F6627CD
:104E2000B00DA11D661F829F2227B00DA11D621F1C
:104E3000739FB00DA11D621F839FA00D611D221FD6
:104E4000749F3327A00D611D231F849F600D211DBA
:104E5000822F762F6A2F11249F5750409AF0F1F03D
:104E600088234AF0EE0FFF1FBB1F661F771F881FA6
:104E700091505040A9F79E3F510580F00C94552762
:104E80000C94A0275F3FE4F3983ED4F38695779582
:104E90006795B795F795E7959F5FC1F7FE2B880F4C
:104EA000911D9695879597F9089597F99F6780E8E2
:104EB00070E060E008959FEF80EC089500240A946C
:104EC0001616170618060906089500240A941216E5
:104ED0001306140605060895092E0394000C11F418
:104EE000882352F0BB0F40F4BF2B11F460FF04C0C5
:104EF0006F5F7F4F8F4F9F4F089557FD9058440F1E
:104F0000551F59F05F3F71F04795880F97FB991F28
:104F100061F09F3F79F087950895121613061406E5
:104F2000551FF2CF4695F1DF08C016161706180672
:104F3000991FF1CF86957105610508940895E8944D
:104F4000BB2766277727CB0197F90895DC01CB01B2
:104F5000FC01F999FECF06C0F2BDE1BDF89A319689
:104F600000B40D9241505040B8F70895DC01CB01D8
:104F700003C02D910E94C12741505040D0F70895A1
:104F8000262FF999FECF1FBA92BD81BD20BD0FB665
:104F9000F894FA9AF99A0FBE01960895052E97FB98
:104FA0001EF400940E94E52757FD07D00E94372881
:104FB00007FC03D04EF40C94E527509540953095AE
:104FC00021953F4F4F4F5F4F089590958095709575
:104FD00061957F4F8F4F9F4F08950E945928A59F3D
:104FE000900DB49F900DA49F800D911D11240895E4
:104FF000B7FF0C94ED270E94ED27821B930B0895B9
:105000002F923F924F925F926F927F928F929F92D8
:10501000AF92BF92CF92DF92EF92FF920F931F93C6
:10502000CF93DF93CDB7DEB7CA1BDB0B0FB6F89477
:10503000DEBF0FBECDBF09942A88398848885F84B7
:105040006E847D848C849B84AA84B984C884DF8028
:10505000EE80FD800C811B81AA81B981CE0FD11D0C
:105060000FB6F894DEBF0FBECDBFED010895A1E2EB
:105070001A2EAA1BBB1BFD010DC0AA1FBB1FEE1FD2
:10508000FF1FA217B307E407F50720F0A21BB30B1D
:10509000E40BF50B661F771F881F991F1A9469F799
:1050A00060957095809590959B01AC01BD01CF01F5
:1050B0000895A29FB001B39FC001A39F700D811DF1
:1050C0001124911DB29F700D811D1124911D089511
:1050D0005058BB27AA270E9480280C946C270E9456
:1050E0005E2738F00E94652720F039F49F3F19F4BD
:1050F00026F40C945B270EF4E095E7FB0C945527FF
:10510000E92F0E947D2758F3BA17620773078407B7
:10511000950720F079F4A6F50C949F270EF4E095FE
:105120000B2EBA2FA02D0B01B90190010C01CA0161
:10513000A0011124FF27591B99F0593F50F4503E0C
:1051400068F11A16F040A22F232F342F4427585FFE
:10515000F3CF469537952795A795F0405395C9F716
:105160007EF41F16BA0B620B730B840BBAF09150CE
:10517000A1F0FF0FBB1F661F771F881FC2F70EC06D
:10518000BA0F621F731F841F48F487957795679540
:10519000B795F7959E3F08F0B0CF9395880F08F02C
:1051A0009927EE0F9795879508950E94E9280C940A
:1051B0006C270E94652758F00E945E2740F029F472
:1051C0005F3F29F00C94552751110C94A0270C94A3
:1051D0005B270E947D2768F39923B1F3552391F350
:1051E000951B550BBB27AA2762177307840738F056
:1051F0009F5F5F4F220F331F441FAA1FA9F335D0B3
:105200000E2E3AF0E0E832D091505040E695001C66
:10521000CAF72BD0FE2F29D0660F771F881FBB1F20
:10522000261737074807AB07B0E809F0BB0B802DFE
:10523000BF01FF2793585F4F3AF09E3F510578F02A
:105240000C9455270C94A0275F3FE4F3983ED4F3C9
:10525000869577956795B795F7959F5FC9F7880FFE
:10526000911D9695879597F90895E1E0660F771F50
:10527000881FBB1F621773078407BA0720F0621BE1
:10528000730B840BBA0BEE1F88F7E09508950E940C
:105290004E296894B1110C94A02708950E94852787
:1052A00088F09F5798F0B92F9927B751B0F0E1F0E7
:1052B000660F771F881F991F1AF0BA95C9F714C097
:1052C000B13091F00E949F27B1E008950C949F2780
:1052D000672F782F8827B85F39F0B93FCCF38695D0
:1052E00077956795B395D9F73EF49095809570952D
:1052F00061957F4F8F4F9F4F08950E94C42608F4F9
:105300008FEF0895DB018F939F930E94ED27BF914C
:10531000AF91A29F800D911DA39F900DB29F900D04
:1053200011240895991B79E004C0991F961708F07D
:10533000961B881F7A95C9F780950895EE0FFF1F79
:105340000590F491E02D09940F931F93CF93DF9371
:105350008230910510F482E090E0E0918207F091B4
:10536000830720E030E0A0E0B0E0309719F1408101
:1053700051810281138148175907C8F08417950796
:1053800069F4109731F012960C93129713961C93B0
:1053900027C0009382071093830722C0211531058F
:1053A00019F04217530718F49A01BD01EF01DF010C
:1053B000F801DBCF21153105F9F0281B390B24301A
:1053C000310580F48A819B816115710521F0FB0113
:1053D0009383828304C09093830780938207FE01A6
:1053E000329644C0FE01E20FF31F81939193225045
:1053F0003109398328833AC0209180073091810791
:10540000232B41F4209155013091560130938107AF
:1054100020938007209153013091540121153105CB
:1054200041F42DB73EB74091570150915801241BCC
:10543000350BE0918007F0918107E217F307A0F4A4
:105440002E1B3F0B2817390778F0AC014E5F5F4FDA
:105450002417350748F04E0F5F1F50938107409384
:1054600080078193919302C0E0E0F0E0CF01DF91EB
:10547000CF911F910F910895CF93DF93009709F477
:1054800081C0FC01329713821282A0918207B091F1
:105490008307109781F420813181820F931F20911F
:1054A0008007309181072817390751F5F09381075C
:1054B000E093800767C0ED0120E030E0CE17DF0702
:1054C00040F44A815B819E0141155105F1F0EA01EA
:1054D000F5CFD383C28340815181840F951FC817B4
:1054E000D90759F488819981840F951F0296918379
:1054F00080838A819B81938382832115310529F4DE
:10550000F0938307E09382073DC0E901FB83EA83C0
:1055100049915991C40FD51FEC17FD0761F48081A3
:105520009181840F951F0296E90199838883828176
:1055300093819B838A83E0E0F0E012968D919C91A9
:105540001397009719F0FD01DC01F7CF8D919C9125
:1055500011979D012E5F3F4F820F931F209180076F
:10556000309181072817390769F4309729F4109290
:1055700083071092820702C013821282B0938107C0
:10558000A0938007DF91CF910895A0E0B0E0EBEC0D
:10559000FAE20C940428EC01009721F4CB010E945C
:1055A000A429B4C0FC01E60FF71F9C012250310969
:1055B000E217F30708F4A8C0D9010D911C911197C7
:1055C00006171707B0F00530110508F49BC0C80195
:1055D00004978617970708F495C002501109061B17
:1055E000170B019311936D937C93CF010E943C2A7A
:1055F00089C05B01A01AB10A4C01800E911EA091D6
:105600008207B0918307612C712CE12CF12C10974B
:1056100009F446C08D919C911197A815B905B1F573
:105620006C0142E0C40ED11CCA14DB0478F14C01B9
:105630008A189B08640142E0C40ED11C1296BC90EB
:1056400012971396AC91B5E0CB16D10440F0B2821C
:10565000A38391828082D9016D937C9309C00E5FF0
:105660001F4F800F911FF90191838083EB2DFA2F3B
:10567000E114F10431F0D7011396FC93EE931297E5
:1056800041C0F0938307E09382073CC06816790617
:1056900008F43C017D0112960D90BC91A02DB7CF6E
:1056A000809180079091810788169906E1F466162B
:1056B0007706C8F48091530190915401009741F40A
:1056C0008DB79EB74091570150915801841B950B9F
:1056D000E817F907C8F4F0938107E0938007F90110
:1056E000718360830FC0CB010E94A4297C010097C5
:1056F00059F0A801BE010E94902BCE010E943C2AC5
:10570000C70104C0CE0102C080E090E0CDB7DEB793
:10571000EEE00C94202881E090E0F8940C94622E46
:10572000FB01DC0102C001900D9241505040D8F7BE
:105730000895FB01DC0101900D920020E1F708952E
:10574000FB01DC014150504048F001900D920020D7
:10575000C9F701C01D9241505040E0F70895AEE0F6
:10576000B0E0E5EBFBE20C940E280D891E8986E083
:105770008C831A8309838FEF9FE79E838D83AE010D
:10578000475E5F4F6F89788DCE0101960E94D12BC5
:10579000EF81F885E00FF11F10822E96E4E00C9463
:1057A0002A28ABE0B0E0E7EDFBE20C9400286C01A6
:1057B0007B018A01FC0117821682838181FFCCC1A3
:1057C000CE0101963C01F6019381F70193FD85918D
:1057D00093FF81917F01882309F4BAC1853239F49E
:1057E00093FD859193FF81917F01853229F4B60164
:1057F00090E00E94C82DE7CF912C212C312CFFE1A5
:10580000F315D8F08B3279F038F4803279F08332A6
:10581000A1F4232D20611DC08D3261F0803369F425
:10582000232D216016C0832D8260382EE32DE46085
:105830003E2E2AC0F32DF8601DC037FC2DC020ED90
:10584000280F2A3040F08E32B9F436FC81C1232D66
:105850002064322E19C036FE06C08AE0989E200DC4
:105860001124922E11C0EAE02E9E200D1124222E2A
:10587000F32DF0623F2E08C08C3621F4832D806812
:10588000382E02C0883641F4F70193FD859193FFCD
:1058900081917F018111B3CF982F9F7D95549330D3
:1058A00028F40C5F1F4F9FE399830DC0833631F0BE
:1058B000833771F0833509F059C021C0F801808128
:1058C00089830E5F1F4F88248394912C530113C04A
:1058D0002801F2E04F0E511CF801A080B18036FE85
:1058E00003C0692D70E002C06FEF7FEFC5010E9419
:1058F000BD2D4C018201F32DFF773F2E16C02801EC
:1059000022E0420E511CF801A080B18036FE03C097
:10591000692D70E002C06FEF7FEFC5010E94B22DCC
:105920004C01F32DF0683F2E820133FC1BC0822D09
:1059300090E088169906B0F4B60180E290E00E94EB
:10594000C82D2A94F4CFF50137FC859137FE81915B
:105950005F01B60190E00E94C82D21102A9421E039
:10596000821A91088114910471F7E8C0843611F00D
:10597000893641F5F80137FE07C060817181828167
:1059800093810C5F1F4F08C060817181072E000C4E
:10599000880B990B0E5F1F4FF32DFF763F2E97FF5D
:1059A00009C090958095709561957F4F8F4F9F4F5F
:1059B000F0683F2E2AE030E0A3010E94042E882EDA
:1059C000861845C0853731F4232D2F7EB22E2AE06C
:1059D00030E025C0932D997FB92E8F36C1F018F491
:1059E000883579F0B5C0803719F0883721F0B0C01C
:1059F000E92FE061BE2EB4FE0DC0FB2DF460BF2E7A
:105A000009C034FE0AC0292F2660B22E06C028E045
:105A100030E005C020E130E002C020E132E0F801D2
:105A2000B7FE07C060817181828193810C5F1F4F37
:105A300006C06081718180E090E00E5F1F4FA3017E
:105A40000E94042E882E8618FB2DFF773F2E36FEEF
:105A50000DC0232D2E7FA22E891458F434FE0BC0C6
:105A600032FC09C0832D8E7EA82E05C0B82CA32C35
:105A700003C0B82C01C0B92CA4FE0FC0FE01E80D74
:105A8000F11D8081803321F49A2D997EA92E09C0C1
:105A9000A2FE06C0B394B39404C08A2D867809F0A0
:105AA000B394A3FC11C0A0FE06C0B21488F4280C65
:105AB000922C9B180EC0B21460F4B60180E290E004
:105AC0000E94C82DB394F7CFB21418F42B1802C05B
:105AD000982C212CA4FE10C0B60180E390E00E9417
:105AE000C82DA2FE17C0A1FC03C088E790E002C049
:105AF00088E590E0B6010CC08A2D867859F0A1FEA9
:105B000002C08BE201C080E2A7FC8DE2B60190E00A
:105B10000E94C82D891438F4B60180E390E00E94F9
:105B2000C82D9A94F7CF8A94F301E80DF11D808176
:105B3000B60190E00E94C82D8110F5CF222009F413
:105B400042CEB60180E290E00E94C82D2A94F6CFA2
:105B5000F6018681978102C08FEF9FEF2B96E2E1DD
:105B60000C941C28FC010590615070400110D8F77E
:105B7000809590958E0F9F1F0895FC016150704095
:105B800001900110D8F7809590958E0F9F1F089572
:105B90000F931F93CF93DF93FB01238121FD03C05C
:105BA0008FEF9FEF2CC022FF16C0468157812481C2
:105BB00035814217530744F4A081B1819D012F5FC5
:105BC0003F4F318320838C93268137812F5F3F4F56
:105BD0003783268314C08B01EC01FB010084F1851F
:105BE000E02D0995892BE1F6D80116968D919C91AF
:105BF0001797019617969C938E931697CE01DF9177
:105C0000CF911F910F910895FA01AA27283051F1E1
:105C1000203181F1E8946F936E7F6E5F7F4F8F4FDD
:105C20009F4FAF4FB1E03ED0B4E03CD0670F781F3C
:105C3000891F9A1FA11D680F791F8A1F911DA11D21
:105C40006A0F711D811D911DA11D20D009F468945A
:105C50003F912AE0269F11243019305D3193DEF602
:105C6000CF010895462F4770405D4193B3E00FD0B8
:105C7000C9F7F6CF462F4F70405D4A3318F0495DA3
:105C800031FD4052419302D0A9F7EACFB4E0A69586
:105C90009795879577956795BA95C9F700976105A8
:105CA000710508959B01AC010A2E069457954795FE
:105CB00037952795BA95C9F7620F731F841F951FF3
:085CC000A01D0895F894FFCF28
:105CC8004D6F6269466C6967687420556E6F000095
:105CD8000000000030393837363534333231004D62
:105CE8006F6269466C6967687420556E6F000000C2
:105CF800000000000000000000000000000000009C
:105D0800000000000000000000000000000000018A
:105D180000000000008407800000FF01000100006F
:105D2800FFFF0000010001FF00312E392E31300045
:105D3800007E306D79335B5F707F7B771F0D3D4F41
:105D48004700000000000000000000000000000004
:105D5800000000000000000000000000008001803A
:105D6800257E306D79335B5F707F7B000000090012
:105D78000000777F4E7E4F475F37307C000E0076FD
:105D88007E677E775B463E000000336D4E137800D9
:105D980008007D1F0D3D4F477B3730380006001542
:105DA8001D6773055B0F1C000000276D4E0078000F
:105DB8000000000000AB05B800180A170A00000030
:105DC80001020100000002010000010100010100C0
:105DD80001010101010000000000D704A3046B04C5
:105DE800F203DC039A03790345032403CE028A02F3
:105DF8000000400014005400000000001101B80029
:105E0800E2005E017402F100660200000000050174
:105E1800B800180A170A00000000E809BB09180AA8
:105E28008F09B3099F0990092E003A002000534EAC
:105E38002D253033782D0025303378003000427519
:085E480074746F6E000D0A0076
:00000001FF
